{
  "transactions": [
    {
      "hash": "0x0bcfa93b4c7eefd5313561fde3e7e0c7e007b903482f682ef43df4d197279ce8",
      "transactionType": "CALL",
      "contractName": null,
      "contractAddress": "0x2213414893259b0c48066acd1763e7fba97859e5",
      "function": "mint(address,uint256)",
      "arguments": [
        "0x0000000000000000000000000000000000000000",
        "47520000000000000000000000"
      ],
      "transaction": {
        "from": "0xf521a4fe5910b4fb4a14c9546c2837d33bec455d",
        "to": "0x2213414893259b0c48066acd1763e7fba97859e5",
        "gas": "0xf5ab",
        "value": "0x0",
        "input": "0x40c10f190000000000000000000000000000000000000000000000000000000000000000000000000000000000000000000000000000000000274ec05ca0998cc4000000",
        "nonce": "0x183",
        "chainId": "0x2105"
      },
      "additionalContracts": [],
      "isFixedGasLimit": false
    },
    {
      "hash": "0x786136dd856d8633d829a6aca96b04a6bb86b316c717f06dff76a604e02aa704",
      "transactionType": "CALL",
      "contractName": null,
      "contractAddress": "0x2213414893259b0c48066acd1763e7fba97859e5",
      "function": "mint(address,uint256)",
      "arguments": [
        "0xf521a4fE5910b4fb4A14C9546C2837D33bEc455d",
        "11758329668937822638694444"
      ],
      "transaction": {
        "from": "0xf521a4fe5910b4fb4a14c9546c2837d33bec455d",
        "to": "0x2213414893259b0c48066acd1763e7fba97859e5",
        "gas": "0xe981",
        "value": "0x0",
        "input": "0x40c10f19000000000000000000000000f521a4fe5910b4fb4a14c9546c2837d33bec455d00000000000000000000000000000000000000000009b9ec541eae610777e02c",
        "nonce": "0x184",
        "chainId": "0x2105"
      },
      "additionalContracts": [],
      "isFixedGasLimit": false
    },
    {
      "hash": "0x1d7c8471d0da2e8756428e80578c1b71ef85e578d99d8e2869d7ca9ab52de127",
      "transactionType": "CALL",
      "contractName": null,
      "contractAddress": "0x2213414893259b0c48066acd1763e7fba97859e5",
      "function": "mint(address,uint256)",
      "arguments": [
        "0x6ECe9b29610fDd909155c154caCFFee7d6273Bac",
        "663300000000000000000000"
      ],
      "transaction": {
        "from": "0xf521a4fe5910b4fb4a14c9546c2837d33bec455d",
        "to": "0x2213414893259b0c48066acd1763e7fba97859e5",
        "gas": "0xf70a",
        "value": "0x0",
        "input": "0x40c10f190000000000000000000000006ece9b29610fdd909155c154cacffee7d6273bac000000000000000000000000000000000000000000008c7590a725fbb9900000",
        "nonce": "0x185",
        "chainId": "0x2105"
      },
      "additionalContracts": [],
      "isFixedGasLimit": false
    },
    {
      "hash": "0xe5f588d85bb64010a9d308115f3e81f6f17e14231c6f65394d8dac0355fc8fe2",
      "transactionType": "CALL",
      "contractName": null,
      "contractAddress": "0x2213414893259b0c48066acd1763e7fba97859e5",
      "function": "mint(address,uint256)",
      "arguments": [
        "0x59cee22Ee277133D153612B3122f6e867445dbb7",
        "118800000000000000000000"
      ],
      "transaction": {
        "from": "0xf521a4fe5910b4fb4a14c9546c2837d33bec455d",
        "to": "0x2213414893259b0c48066acd1763e7fba97859e5",
        "gas": "0xf70a",
        "value": "0x0",
        "input": "0x40c10f1900000000000000000000000059cee22ee277133d153612b3122f6e867445dbb700000000000000000000000000000000000000000000192829310a9fb6400000",
        "nonce": "0x186",
        "chainId": "0x2105"
      },
      "additionalContracts": [],
      "isFixedGasLimit": false
    },
    {
      "hash": "0xd41ed7c5d81e23521e013e07f37f2c3e91e6c99de822005de979e8bc94cc7425",
      "transactionType": "CALL",
      "contractName": null,
      "contractAddress": "0x2213414893259b0c48066acd1763e7fba97859e5",
      "function": "mint(address,uint256)",
      "arguments": [
        "0x195b4ca4568EA0051551D8E96502Ce2A36269576",
        "46331125021424376944217"
      ],
      "transaction": {
        "from": "0xf521a4fe5910b4fb4a14c9546c2837d33bec455d",
        "to": "0x2213414893259b0c48066acd1763e7fba97859e5",
        "gas": "0xf72d",
        "value": "0x0",
        "input": "0x40c10f19000000000000000000000000195b4ca4568ea0051551d8e96502ce2a362695760000000000000000000000000000000000000000000009cf9d859e2a24591659",
        "nonce": "0x187",
        "chainId": "0x2105"
      },
      "additionalContracts": [],
      "isFixedGasLimit": false
    },
    {
      "hash": "0x58dda68e1335bd31ba7aac4f9767cbb8c7ac29180f7e999e8afa225459daee8b",
      "transactionType": "CALL",
      "contractName": null,
      "contractAddress": "0x2213414893259b0c48066acd1763e7fba97859e5",
      "function": "mint(address,uint256)",
      "arguments": [
        "0xF8BCF76357A358D225DcD431A7238052ce206249",
        "9801000000000000000000"
      ],
      "transaction": {
        "from": "0xf521a4fe5910b4fb4a14c9546c2837d33bec455d",
        "to": "0x2213414893259b0c48066acd1763e7fba97859e5",
        "gas": "0xf70a",
        "value": "0x0",
        "input": "0x40c10f19000000000000000000000000f8bcf76357a358d225dcd431a7238052ce2062490000000000000000000000000000000000000000000002135032c41393840000",
        "nonce": "0x188",
        "chainId": "0x2105"
      },
      "additionalContracts": [],
      "isFixedGasLimit": false
    },
    {
      "hash": "0x60910f82d468f544985aff1695736a7f461c54c5108c70122eba43ad5074c18d",
      "transactionType": "CALL",
      "contractName": null,
      "contractAddress": "0x2213414893259b0c48066acd1763e7fba97859e5",
      "function": "mint(address,uint256)",
      "arguments": [
        "0x12e31f706010AE0996A2D8247c432d9102e3c871",
        "1845088709444170146000"
      ],
      "transaction": {
        "from": "0xf521a4fe5910b4fb4a14c9546c2837d33bec455d",
        "to": "0x2213414893259b0c48066acd1763e7fba97859e5",
        "gas": "0xe961",
        "value": "0x0",
        "input": "0x40c10f1900000000000000000000000012e31f706010ae0996a2d8247c432d9102e3c87100000000000000000000000000000000000000000000006405bfe58a5fafe0d0",
        "nonce": "0x189",
        "chainId": "0x2105"
      },
      "additionalContracts": [],
      "isFixedGasLimit": false
    },
    {
      "hash": "0x9843308ad056a1b003a72b5455092f6958a5d293d814869d19073a15844a9402",
      "transactionType": "CALL",
      "contractName": null,
      "contractAddress": "0x2213414893259b0c48066acd1763e7fba97859e5",
      "function": "mint(address,uint256)",
      "arguments": [
        "0x557c7Cb60e536C437aC96B361539257B0E2C35C5",
        "1112412168193240968174"
      ],
      "transaction": {
        "from": "0xf521a4fe5910b4fb4a14c9546c2837d33bec455d",
        "to": "0x2213414893259b0c48066acd1763e7fba97859e5",
        "gas": "0xe961",
        "value": "0x0",
        "input": "0x40c10f19000000000000000000000000557c7cb60e536c437ac96b361539257b0e2c35c500000000000000000000000000000000000000000000003c4dd1ed28d437abee",
        "nonce": "0x18a",
        "chainId": "0x2105"
      },
      "additionalContracts": [],
      "isFixedGasLimit": false
    },
    {
      "hash": "0x1b82ab2315defd0d869d30b554d8e35569bd53c35e5ea6e0720b43d2469530a1",
      "transactionType": "CALL",
      "contractName": null,
      "contractAddress": "0x2213414893259b0c48066acd1763e7fba97859e5",
      "function": "mint(address,uint256)",
      "arguments": [
        "0x1dB4286a9A7637F8347fC53B71Daa9235c129B41",
        "985743000000000000000"
      ],
      "transaction": {
        "from": "0xf521a4fe5910b4fb4a14c9546c2837d33bec455d",
        "to": "0x2213414893259b0c48066acd1763e7fba97859e5",
        "gas": "0xf70a",
        "value": "0x0",
        "input": "0x40c10f190000000000000000000000001db4286a9a7637f8347fc53b71daa9235c129b410000000000000000000000000000000000000000000000356feea3cf4be18000",
        "nonce": "0x18b",
        "chainId": "0x2105"
      },
      "additionalContracts": [],
      "isFixedGasLimit": false
    },
    {
      "hash": "0x04bfacc285131bebfb7185804c0678d0729c1b45c104adb85d568e1abdbb0a5e",
      "transactionType": "CALL",
      "contractName": null,
      "contractAddress": "0x2213414893259b0c48066acd1763e7fba97859e5",
      "function": "mint(address,uint256)",
      "arguments": [
        "0xaf32cA0c109318a36aA2e10F38611D5b64b72A03",
        "594000000000000000000"
      ],
      "transaction": {
        "from": "0xf521a4fe5910b4fb4a14c9546c2837d33bec455d",
        "to": "0x2213414893259b0c48066acd1763e7fba97859e5",
        "gas": "0xe93f",
        "value": "0x0",
        "input": "0x40c10f19000000000000000000000000af32ca0c109318a36aa2e10f38611d5b64b72a030000000000000000000000000000000000000000000000203367ecda66080000",
        "nonce": "0x18c",
        "chainId": "0x2105"
      },
      "additionalContracts": [],
      "isFixedGasLimit": false
    },
    {
      "hash": "0x073005bfc5ac9f1caa664cc7b175e96e3028699c135add22cfe7355772a32135",
      "transactionType": "CALL",
      "contractName": null,
      "contractAddress": "0x2213414893259b0c48066acd1763e7fba97859e5",
      "function": "mint(address,uint256)",
      "arguments": [
        "0xffde42d40175b3b9349Dfb384439dCB811691E09",
        "495000000000000000000"
      ],
      "transaction": {
        "from": "0xf521a4fe5910b4fb4a14c9546c2837d33bec455d",
        "to": "0x2213414893259b0c48066acd1763e7fba97859e5",
        "gas": "0xe93f",
        "value": "0x0",
        "input": "0x40c10f19000000000000000000000000ffde42d40175b3b9349dfb384439dcb811691e0900000000000000000000000000000000000000000000001ad5814560aa5c0000",
        "nonce": "0x18d",
        "chainId": "0x2105"
      },
      "additionalContracts": [],
      "isFixedGasLimit": false
    },
    {
      "hash": "0xab2bc8044e9b2811b7e17afd8c11d2972ec2edb4429f5e100b4d2087416b666c",
      "transactionType": "CALL",
      "contractName": null,
      "contractAddress": "0x2213414893259b0c48066acd1763e7fba97859e5",
      "function": "mint(address,uint256)",
      "arguments": [
        "0x81759DBF79eADb24b1BFe197a833fa89179B0CbD",
        "495000000000000000000"
      ],
      "transaction": {
        "from": "0xf521a4fe5910b4fb4a14c9546c2837d33bec455d",
        "to": "0x2213414893259b0c48066acd1763e7fba97859e5",
        "gas": "0xe93f",
        "value": "0x0",
        "input": "0x40c10f1900000000000000000000000081759dbf79eadb24b1bfe197a833fa89179b0cbd00000000000000000000000000000000000000000000001ad5814560aa5c0000",
        "nonce": "0x18e",
        "chainId": "0x2105"
      },
      "additionalContracts": [],
      "isFixedGasLimit": false
    },
    {
      "hash": "0xf88c3f634f9f0027eb1c166725fb1410013b6b70945fea982488f2ac6f5d7566",
      "transactionType": "CALL",
      "contractName": null,
      "contractAddress": "0x2213414893259b0c48066acd1763e7fba97859e5",
      "function": "mint(address,uint256)",
      "arguments": [
        "0x24344dE334423FE32044BCD2AAc9db832F6eeAc7",
        "483793367717272125051"
      ],
      "transaction": {
        "from": "0xf521a4fe5910b4fb4a14c9546c2837d33bec455d",
        "to": "0x2213414893259b0c48066acd1763e7fba97859e5",
        "gas": "0xe961",
        "value": "0x0",
        "input": "0x40c10f1900000000000000000000000024344de334423fe32044bcd2aac9db832f6eeac700000000000000000000000000000000000000000000001a39fb50b115f07e7b",
        "nonce": "0x18f",
        "chainId": "0x2105"
      },
      "additionalContracts": [],
      "isFixedGasLimit": false
    },
    {
      "hash": "0xf3e9130162c3498ef5cceb3153e669dccd15f980abd2e8329a718d4b5fc1d7e7",
      "transactionType": "CALL",
      "contractName": null,
      "contractAddress": "0x2213414893259b0c48066acd1763e7fba97859e5",
      "function": "mint(address,uint256)",
      "arguments": [
        "0x92cb926a465164C522198208fB963F0E63a89D15",
        "396000000000000000000"
      ],
      "transaction": {
        "from": "0xf521a4fe5910b4fb4a14c9546c2837d33bec455d",
        "to": "0x2213414893259b0c48066acd1763e7fba97859e5",
        "gas": "0xe93f",
        "value": "0x0",
        "input": "0x40c10f1900000000000000000000000092cb926a465164c522198208fb963f0e63a89d15000000000000000000000000000000000000000000000015779a9de6eeb00000",
        "nonce": "0x190",
        "chainId": "0x2105"
      },
      "additionalContracts": [],
      "isFixedGasLimit": false
    },
    {
      "hash": "0x0a499383a5ea9d7b24cfde77888775a8dd1a59bbf36cdee23d638ad375753433",
      "transactionType": "CALL",
      "contractName": null,
      "contractAddress": "0x2213414893259b0c48066acd1763e7fba97859e5",
      "function": "mint(address,uint256)",
      "arguments": [
        "0x5d64D14D2CF4fe5fe4e65B1c7E3D11e18D493091",
        "125168958957364156890"
      ],
      "transaction": {
        "from": "0xf521a4fe5910b4fb4a14c9546c2837d33bec455d",
        "to": "0x2213414893259b0c48066acd1763e7fba97859e5",
        "gas": "0xe961",
        "value": "0x0",
        "input": "0x40c10f190000000000000000000000005d64d14d2cf4fe5fe4e65b1c7e3d11e18d493091000000000000000000000000000000000000000000000006c91178ff872399da",
        "nonce": "0x191",
        "chainId": "0x2105"
      },
      "additionalContracts": [],
      "isFixedGasLimit": false
    },
    {
      "hash": "0x69885477830e9e9d8694ca71265fd41bd14c20a9be4e896da7ef723b3985509e",
      "transactionType": "CALL",
      "contractName": null,
      "contractAddress": "0x2213414893259b0c48066acd1763e7fba97859e5",
      "function": "mint(address,uint256)",
      "arguments": [
        "0xAD541dA7F18a5151411ed8f83C4727A9F45ea3b2",
        "114198939034690148595"
      ],
      "transaction": {
        "from": "0xf521a4fe5910b4fb4a14c9546c2837d33bec455d",
        "to": "0x2213414893259b0c48066acd1763e7fba97859e5",
        "gas": "0xf70a",
        "value": "0x0",
        "input": "0x40c10f19000000000000000000000000ad541da7f18a5151411ed8f83c4727a9f45ea3b200000000000000000000000000000000000000000000000630d42200093258f3",
        "nonce": "0x192",
        "chainId": "0x2105"
      },
      "additionalContracts": [],
      "isFixedGasLimit": false
    },
    {
      "hash": "0xe97bd1f047ecfe2b4e23446599104cc2558ec6deb347256368dbafc347c26550",
      "transactionType": "CALL",
      "contractName": null,
      "contractAddress": "0x2213414893259b0c48066acd1763e7fba97859e5",
      "function": "mint(address,uint256)",
      "arguments": [
        "0x86924c37A93734E8611Eb081238928a9d18a63c0",
        "52668000000000000000"
      ],
      "transaction": {
        "from": "0xf521a4fe5910b4fb4a14c9546c2837d33bec455d",
        "to": "0x2213414893259b0c48066acd1763e7fba97859e5",
        "gas": "0xe93f",
        "value": "0x0",
        "input": "0x40c10f1900000000000000000000000086924c37a93734e8611eb081238928a9d18a63c0000000000000000000000000000000000000000000000002daea52f3f6460000",
        "nonce": "0x193",
        "chainId": "0x2105"
      },
      "additionalContracts": [],
      "isFixedGasLimit": false
    },
    {
      "hash": "0x28dfc3613ac2d475cb6d46f360afeaecff0445ead350c48f0da4039505c48a0b",
      "transactionType": "CALL",
      "contractName": null,
      "contractAddress": "0x2213414893259b0c48066acd1763e7fba97859e5",
      "function": "mint(address,uint256)",
      "arguments": [
        "0xCFd59c0f530db36eEA8CCbFe744f01fe3556925e",
        "32360603951348173116"
      ],
      "transaction": {
        "from": "0xf521a4fe5910b4fb4a14c9546c2837d33bec455d",
        "to": "0x2213414893259b0c48066acd1763e7fba97859e5",
        "gas": "0xe961",
        "value": "0x0",
        "input": "0x40c10f19000000000000000000000000cfd59c0f530db36eea8ccbfe744f01fe3556925e000000000000000000000000000000000000000000000001c117f5d70535c93c",
        "nonce": "0x194",
        "chainId": "0x2105"
      },
      "additionalContracts": [],
      "isFixedGasLimit": false
    },
    {
      "hash": "0x712d306a51d612423cc1c8597ae9a361fe2ea420e0e344765435e6095065eb73",
      "transactionType": "CALL",
      "contractName": null,
      "contractAddress": "0x2213414893259b0c48066acd1763e7fba97859e5",
      "function": "mint(address,uint256)",
      "arguments": [
        "0xA120BF97A89D7FA0927e76C093169Fa7CfacA3BB",
        "30335585857679421495"
      ],
      "transaction": {
        "from": "0xf521a4fe5910b4fb4a14c9546c2837d33bec455d",
        "to": "0x2213414893259b0c48066acd1763e7fba97859e5",
        "gas": "0xe961",
        "value": "0x0",
        "input": "0x40c10f19000000000000000000000000a120bf97a89d7fa0927e76c093169fa7cfaca3bb000000000000000000000000000000000000000000000001a4fda69cdc587037",
        "nonce": "0x195",
        "chainId": "0x2105"
      },
      "additionalContracts": [],
      "isFixedGasLimit": false
    },
    {
      "hash": "0x8e5db8442aa3ff1ced5adcc986554936fcf68e9bf8fdb2ba6eeb6ba8dde0e857",
      "transactionType": "CALL",
      "contractName": null,
      "contractAddress": "0x2213414893259b0c48066acd1763e7fba97859e5",
      "function": "mint(address,uint256)",
      "arguments": [
        "0xF00000003D31D4ab730A8e269Ae547F8F76996bA",
        "15121274326638829173"
      ],
      "transaction": {
        "from": "0xf521a4fe5910b4fb4a14c9546c2837d33bec455d",
        "to": "0x2213414893259b0c48066acd1763e7fba97859e5",
        "gas": "0xe91f",
        "value": "0x0",
        "input": "0x40c10f19000000000000000000000000f00000003d31d4ab730a8e269ae547f8f76996ba000000000000000000000000000000000000000000000000d1d98ee2568a9e75",
        "nonce": "0x196",
        "chainId": "0x2105"
      },
      "additionalContracts": [],
      "isFixedGasLimit": false
    },
    {
      "hash": "0x7a6a2651fb419b76c92743010a1ae4d218af3765dab7f0814dee535db49c40bc",
      "transactionType": "CALL",
      "contractName": null,
      "contractAddress": "0x2213414893259b0c48066acd1763e7fba97859e5",
      "function": "mint(address,uint256)",
      "arguments": [
        "0xc073c7ACF73F0DE6981aE4bBd8832C875D70b459",
        "12085810811429655663"
      ],
      "transaction": {
        "from": "0xf521a4fe5910b4fb4a14c9546c2837d33bec455d",
        "to": "0x2213414893259b0c48066acd1763e7fba97859e5",
        "gas": "0xf70a",
        "value": "0x0",
        "input": "0x40c10f19000000000000000000000000c073c7acf73f0de6981ae4bbd8832c875d70b459000000000000000000000000000000000000000000000000a7b96ce64dd7146f",
        "nonce": "0x197",
        "chainId": "0x2105"
      },
      "additionalContracts": [],
      "isFixedGasLimit": false
    },
    {
      "hash": "0xc32ec6a6207bb729f43b69d8f7cd99b5333513e81b352ee5ece0b71aa4b2f8d4",
      "transactionType": "CALL",
      "contractName": null,
      "contractAddress": "0x2213414893259b0c48066acd1763e7fba97859e5",
      "function": "mint(address,uint256)",
      "arguments": [
        "0x4f82e73EDb06d29Ff62C91EC8f5Ff06571bdeb29",
        "10424018902762648260"
      ],
      "transaction": {
        "from": "0xf521a4fe5910b4fb4a14c9546c2837d33bec455d",
        "to": "0x2213414893259b0c48066acd1763e7fba97859e5",
        "gas": "0xf70a",
        "value": "0x0",
        "input": "0x40c10f190000000000000000000000004f82e73edb06d29ff62c91ec8f5ff06571bdeb2900000000000000000000000000000000000000000000000090a98df6971ff2c4",
        "nonce": "0x198",
        "chainId": "0x2105"
      },
      "additionalContracts": [],
      "isFixedGasLimit": false
    },
    {
      "hash": "0xf8a93333e9231e6bb007ca9d247840cb2bf3037d95f10b12a9bf9f2a8cf7ab0b",
      "transactionType": "CALL",
      "contractName": null,
      "contractAddress": "0x2213414893259b0c48066acd1763e7fba97859e5",
      "function": "mint(address,uint256)",
      "arguments": [
        "0x9cb8d9BaE84830b7f5F11ee5048c04a80b8514BA",
        "8635581089430877593"
      ],
      "transaction": {
        "from": "0xf521a4fe5910b4fb4a14c9546c2837d33bec455d",
        "to": "0x2213414893259b0c48066acd1763e7fba97859e5",
        "gas": "0xf70a",
        "value": "0x0",
        "input": "0x40c10f190000000000000000000000009cb8d9bae84830b7f5f11ee5048c04a80b8514ba00000000000000000000000000000000000000000000000077d7bf3f609bb599",
        "nonce": "0x199",
        "chainId": "0x2105"
      },
      "additionalContracts": [],
      "isFixedGasLimit": false
    },
    {
      "hash": "0x5f4d29d7ceadb8e98ef9579a9d72472a02588507fd57b882cbb5822e2004baae",
      "transactionType": "CALL",
      "contractName": null,
      "contractAddress": "0x2213414893259b0c48066acd1763e7fba97859e5",
      "function": "mint(address,uint256)",
      "arguments": [
        "0x471f5a59a463DaaA7d619573901111275c559489",
        "8164592166201691473"
      ],
      "transaction": {
        "from": "0xf521a4fe5910b4fb4a14c9546c2837d33bec455d",
        "to": "0x2213414893259b0c48066acd1763e7fba97859e5",
        "gas": "0xf70a",
        "value": "0x0",
        "input": "0x40c10f19000000000000000000000000471f5a59a463daaa7d619573901111275c559489000000000000000000000000000000000000000000000000714e75513a638d51",
        "nonce": "0x19a",
        "chainId": "0x2105"
      },
      "additionalContracts": [],
      "isFixedGasLimit": false
    },
    {
      "hash": "0xaa91d6b852f941352208f05d9e15c75d60036288ff2de09fb5647e5d46e92219",
      "transactionType": "CALL",
      "contractName": null,
      "contractAddress": "0x2213414893259b0c48066acd1763e7fba97859e5",
      "function": "mint(address,uint256)",
      "arguments": [
        "0xE5B89FA771049df021dcf3817BfC756bb2F85F96",
        "5849723466255726189"
      ],
      "transaction": {
        "from": "0xf521a4fe5910b4fb4a14c9546c2837d33bec455d",
        "to": "0x2213414893259b0c48066acd1763e7fba97859e5",
        "gas": "0xf70a",
        "value": "0x0",
        "input": "0x40c10f19000000000000000000000000e5b89fa771049df021dcf3817bfc756bb2f85f96000000000000000000000000000000000000000000000000512e647fd870766d",
        "nonce": "0x19b",
        "chainId": "0x2105"
      },
      "additionalContracts": [],
      "isFixedGasLimit": false
    },
    {
      "hash": "0x447575fab1b1ac72d3e04a225dfeb415a163bce97a83222484bc1f536abeb72a",
      "transactionType": "CALL",
      "contractName": null,
      "contractAddress": "0x2213414893259b0c48066acd1763e7fba97859e5",
      "function": "mint(address,uint256)",
      "arguments": [
        "0xeC6c1427a9308c47624899cb3454Bd34a424FA8f",
        "4840115305007850615"
      ],
      "transaction": {
        "from": "0xf521a4fe5910b4fb4a14c9546c2837d33bec455d",
        "to": "0x2213414893259b0c48066acd1763e7fba97859e5",
        "gas": "0xf70a",
        "value": "0x0",
        "input": "0x40c10f19000000000000000000000000ec6c1427a9308c47624899cb3454bd34a424fa8f000000000000000000000000000000000000000000000000432b8b39d2eca477",
        "nonce": "0x19c",
        "chainId": "0x2105"
      },
      "additionalContracts": [],
      "isFixedGasLimit": false
    },
    {
      "hash": "0x309602ca7fd9fc247866babe0e12d4b47a96da3ffeda3a0d1439fcddd42eb9d3",
      "transactionType": "CALL",
      "contractName": null,
      "contractAddress": "0x2213414893259b0c48066acd1763e7fba97859e5",
      "function": "mint(address,uint256)",
      "arguments": [
        "0x382fFCe2287252F930E1C8DC9328dac5BF282bA1",
        "3604499794042955379"
      ],
      "transaction": {
        "from": "0xf521a4fe5910b4fb4a14c9546c2837d33bec455d",
        "to": "0x2213414893259b0c48066acd1763e7fba97859e5",
        "gas": "0xf70a",
        "value": "0x0",
        "input": "0x40c10f19000000000000000000000000382ffce2287252f930e1c8dc9328dac5bf282ba10000000000000000000000000000000000000000000000003205c17718e62673",
        "nonce": "0x19d",
        "chainId": "0x2105"
      },
      "additionalContracts": [],
      "isFixedGasLimit": false
    },
    {
      "hash": "0x16b8e7b4382578c56cb982e74f40d80e1fec6f2c138f252f3edadd30e6087f56",
      "transactionType": "CALL",
      "contractName": null,
      "contractAddress": "0x2213414893259b0c48066acd1763e7fba97859e5",
      "function": "mint(address,uint256)",
      "arguments": [
        "0xaD01C20d5886137e056775af56915de824c8fCe5",
        "593865912860597817"
      ],
      "transaction": {
        "from": "0xf521a4fe5910b4fb4a14c9546c2837d33bec455d",
        "to": "0x2213414893259b0c48066acd1763e7fba97859e5",
        "gas": "0xf70a",
        "value": "0x0",
        "input": "0x40c10f19000000000000000000000000ad01c20d5886137e056775af56915de824c8fce5000000000000000000000000000000000000000000000000083dd5e6bc44de39",
        "nonce": "0x19e",
        "chainId": "0x2105"
      },
      "additionalContracts": [],
      "isFixedGasLimit": false
    },
    {
      "hash": "0x7b29d154be0cf99af75673601f33ed9bef55ab4f224ded779a0f9bedd5d52133",
      "transactionType": "CALL",
      "contractName": null,
      "contractAddress": "0x2213414893259b0c48066acd1763e7fba97859e5",
      "function": "mint(address,uint256)",
      "arguments": [
        "0x00000009e70D153a81f4c972Dd123C4B71B7441C",
        "60690316914827523"
      ],
      "transaction": {
        "from": "0xf521a4fe5910b4fb4a14c9546c2837d33bec455d",
        "to": "0x2213414893259b0c48066acd1763e7fba97859e5",
        "gas": "0xf6c4",
        "value": "0x0",
        "input": "0x40c10f1900000000000000000000000000000009e70d153a81f4c972dd123c4b71b7441c00000000000000000000000000000000000000000000000000d79d858d03a103",
        "nonce": "0x19f",
        "chainId": "0x2105"
      },
      "additionalContracts": [],
      "isFixedGasLimit": false
    },
    {
      "hash": "0x3fbd478dc7f677675c2977b8eabcbd31fbb7a47ab27a0f12eaf12309b46fa272",
      "transactionType": "CALL",
      "contractName": null,
      "contractAddress": "0x2213414893259b0c48066acd1763e7fba97859e5",
      "function": "mint(address,uint256)",
      "arguments": [
        "0xF85E95BEF8F2De7782B0936ca3480C41a4b6C59B",
        "48890053585937916"
      ],
      "transaction": {
        "from": "0xf521a4fe5910b4fb4a14c9546c2837d33bec455d",
        "to": "0x2213414893259b0c48066acd1763e7fba97859e5",
        "gas": "0xe93f",
        "value": "0x0",
        "input": "0x40c10f19000000000000000000000000f85e95bef8f2de7782b0936ca3480c41a4b6c59b00000000000000000000000000000000000000000000000000adb13ea50a25fc",
        "nonce": "0x1a0",
        "chainId": "0x2105"
      },
      "additionalContracts": [],
      "isFixedGasLimit": false
    },
    {
      "hash": "0x4933c76bdd8b178f0b06d023ec61312642ca5d6750e46bc08b1fec6e2b8ea4db",
      "transactionType": "CALL",
      "contractName": null,
      "contractAddress": "0x2213414893259b0c48066acd1763e7fba97859e5",
      "function": "mint(address,uint256)",
      "arguments": [
        "0x006004d6c39590d39310a0d34181e15d9aDe3902",
        "7645452518358072"
      ],
      "transaction": {
        "from": "0xf521a4fe5910b4fb4a14c9546c2837d33bec455d",
        "to": "0x2213414893259b0c48066acd1763e7fba97859e5",
        "gas": "0xf6e7",
        "value": "0x0",
        "input": "0x40c10f19000000000000000000000000006004d6c39590d39310a0d34181e15d9ade3902000000000000000000000000000000000000000000000000001b297fa180fc38",
        "nonce": "0x1a1",
        "chainId": "0x2105"
      },
      "additionalContracts": [],
      "isFixedGasLimit": false
    },
    {
      "hash": "0xc5b0ef61f2cdf2eba841901e7c0a14b4705e2a6878cc18dc5826bb3c5a916ab1",
      "transactionType": "CALL",
      "contractName": null,
      "contractAddress": "0x2213414893259b0c48066acd1763e7fba97859e5",
      "function": "mint(address,uint256)",
      "arguments": [
        "0xA71F09bb63fe0e420d9740E46e28f0057FBa68f8",
        "64224666"
      ],
      "transaction": {
        "from": "0xf521a4fe5910b4fb4a14c9546c2837d33bec455d",
        "to": "0x2213414893259b0c48066acd1763e7fba97859e5",
        "gas": "0xf6c4",
        "value": "0x0",
        "input": "0x40c10f19000000000000000000000000a71f09bb63fe0e420d9740e46e28f0057fba68f80000000000000000000000000000000000000000000000000000000003d3fd9a",
        "nonce": "0x1a2",
        "chainId": "0x2105"
      },
      "additionalContracts": [],
      "isFixedGasLimit": false
    },
    {
      "hash": "0x820da65c0bb2cd4bc4230e9ee9ebeff4ba50094803c73c56ecbab1f58fb72ae7",
      "transactionType": "CALL",
      "contractName": null,
      "contractAddress": "0x2213414893259b0c48066acd1763e7fba97859e5",
      "function": "mint(address,uint256)",
      "arguments": [
        "0x03E8254fDE84a8601c97c8682fD525Db4494dFB6",
        "38709"
      ],
      "transaction": {
        "from": "0xf521a4fe5910b4fb4a14c9546c2837d33bec455d",
        "to": "0x2213414893259b0c48066acd1763e7fba97859e5",
        "gas": "0xf6a1",
        "value": "0x0",
        "input": "0x40c10f1900000000000000000000000003e8254fde84a8601c97c8682fd525db4494dfb60000000000000000000000000000000000000000000000000000000000009735",
        "nonce": "0x1a3",
        "chainId": "0x2105"
      },
      "additionalContracts": [],
      "isFixedGasLimit": false
    },
    {
      "hash": "0x60d15ff2de395dd6f839b7c27a9da21b536cbd62c711c62e9cb64b8ca7fb3015",
      "transactionType": "CALL",
      "contractName": null,
      "contractAddress": "0x2213414893259b0c48066acd1763e7fba97859e5",
      "function": "mint(address,uint256)",
      "arguments": [
        "0x498581fF718922c3f8e6A244956aF099B2652b2b",
        "2673"
      ],
      "transaction": {
        "from": "0xf521a4fe5910b4fb4a14c9546c2837d33bec455d",
        "to": "0x2213414893259b0c48066acd1763e7fba97859e5",
        "gas": "0xf6a1",
        "value": "0x0",
        "input": "0x40c10f19000000000000000000000000498581ff718922c3f8e6a244956af099b2652b2b0000000000000000000000000000000000000000000000000000000000000a71",
        "nonce": "0x1a4",
        "chainId": "0x2105"
      },
      "additionalContracts": [],
      "isFixedGasLimit": false
    },
    {
      "hash": "0x3b6ee989760590bd3e0ae9b1337ca2e61ae7b2b56618f767c2a77b8c5b033ae9",
      "transactionType": "CALL",
      "contractName": null,
      "contractAddress": "0x2213414893259b0c48066acd1763e7fba97859e5",
      "function": "mint(address,uint256)",
      "arguments": [
        "0x9f4e276675f50C271d1C8E202479DabcCB69Ced0",
        "198"
      ],
      "transaction": {
        "from": "0xf521a4fe5910b4fb4a14c9546c2837d33bec455d",
        "to": "0x2213414893259b0c48066acd1763e7fba97859e5",
        "gas": "0xe8dc",
        "value": "0x0",
        "input": "0x40c10f190000000000000000000000009f4e276675f50c271d1c8e202479dabccb69ced000000000000000000000000000000000000000000000000000000000000000c6",
        "nonce": "0x1a5",
        "chainId": "0x2105"
      },
      "additionalContracts": [],
      "isFixedGasLimit": false
    },
    {
      "hash": "0x25867ebb9a62e2764d6a8522c784bd3dc65f398900162c153a37361658d2d2f8",
      "transactionType": "CALL",
      "contractName": null,
      "contractAddress": "0x2213414893259b0c48066acd1763e7fba97859e5",
      "function": "mint(address,uint256)",
      "arguments": [
        "0x6E4141d33021b52C91c28608403db4A0FFB50Ec6",
        "99"
      ],
      "transaction": {
        "from": "0xf521a4fe5910b4fb4a14c9546c2837d33bec455d",
        "to": "0x2213414893259b0c48066acd1763e7fba97859e5",
        "gas": "0xe8dc",
        "value": "0x0",
        "input": "0x40c10f190000000000000000000000006e4141d33021b52c91c28608403db4a0ffb50ec60000000000000000000000000000000000000000000000000000000000000063",
        "nonce": "0x1a6",
        "chainId": "0x2105"
      },
      "additionalContracts": [],
      "isFixedGasLimit": false
    }
  ],
  "receipts": [
    {
      "status": "0x1",
      "cumulativeGasUsed": "0x2117dad",
      "logs": [
        {
          "address": "0x2213414893259b0c48066acd1763e7fba97859e5",
          "topics": [
            "0xddf252ad1be2c89b69c2b068fc378daa952ba7f163c4a11628f55a4df523b3ef",
            "0x0000000000000000000000000000000000000000000000000000000000000000",
            "0x0000000000000000000000000000000000000000000000000000000000000000"
          ],
          "data": "0x000000000000000000000000000000000000000000274ec05ca0998cc4000000",
          "blockHash": "0x8ef2bbea72ea3e2aee9058c2216deb8490913920df1825cc4bab1ed9b0a88c49",
          "blockNumber": "0x210c11b",
          "blockTimestamp": "0x68abdf19",
          "transactionHash": "0x0bcfa93b4c7eefd5313561fde3e7e0c7e007b903482f682ef43df4d197279ce8",
          "transactionIndex": "0xc9",
          "logIndex": "0x1af",
          "removed": false
        }
      ],
      "logsBloom": "0x00000000000000000000000000010000000000000000000000000000000000000000000000000000000000000000000000000000000000000000000000000000000000000000000000000008000000000000000000000000000000000000000000000000020000000000000000000800000000000000000000000010000000000000000000000000000000000000000000000000000000000000000000000000000000008000000000000000000008000000000000000000000000000000000000000002000000000000000000000000000000000000000000000000000020000000000000000000000000000000000000000000000000000000000000000000",
      "type": "0x2",
      "transactionHash": "0x0bcfa93b4c7eefd5313561fde3e7e0c7e007b903482f682ef43df4d197279ce8",
      "transactionIndex": "0xc9",
      "blockHash": "0x8ef2bbea72ea3e2aee9058c2216deb8490913920df1825cc4bab1ed9b0a88c49",
      "blockNumber": "0x210c11b",
      "gasUsed": "0xa7fb",
      "effectiveGasPrice": "0x120452",
      "from": "0xf521a4fe5910b4fb4a14c9546c2837d33bec455d",
      "to": "0x2213414893259b0c48066acd1763e7fba97859e5",
      "contractAddress": null,
      "l1BaseFeeScalar": "0x8dd",
      "l1BlobBaseFee": "0x1",
      "l1BlobBaseFeeScalar": "0x101c12",
      "l1Fee": "0x1f1c0423",
      "l1GasPrice": "0x891b3a1",
      "l1GasUsed": "0x640"
    },
    {
      "status": "0x1",
      "cumulativeGasUsed": "0x21226bc",
      "logs": [
        {
          "address": "0x2213414893259b0c48066acd1763e7fba97859e5",
          "topics": [
            "0xddf252ad1be2c89b69c2b068fc378daa952ba7f163c4a11628f55a4df523b3ef",
            "0x0000000000000000000000000000000000000000000000000000000000000000",
            "0x000000000000000000000000f521a4fe5910b4fb4a14c9546c2837d33bec455d"
          ],
          "data": "0x00000000000000000000000000000000000000000009b9ec541eae610777e02c",
          "blockHash": "0x9433e41171bee403535e92ed3830b76ea1a171286b67eff783c51d0348d40dd1",
          "blockNumber": "0x210c11b",
          "blockTimestamp": "0x68abdf19",
          "transactionHash": "0x786136dd856d8633d829a6aca96b04a6bb86b316c717f06dff76a604e02aa704",
          "transactionIndex": "0xca",
          "logIndex": "0x1b0",
          "removed": false
        }
      ],
      "logsBloom": "0x00000000000000000000000000010000000000000000000000000000000000000000100000000000000000000000000000000000000008000000000100000000000000000000000000000008000000000000000000000000000000000000000000000000020000000000000000000800000000000000000000000010000000000000000000000000000000000000000000000000000000000000000000000000000000008000000000000000000008000000000000000000000000000000000000000002000000000000000000000000000000000000000000000000000020000000000000000000000000000000000000000000000000000000000000000000",
      "type": "0x2",
      "transactionHash": "0x786136dd856d8633d829a6aca96b04a6bb86b316c717f06dff76a604e02aa704",
      "transactionIndex": "0xca",
      "blockHash": "0x9433e41171bee403535e92ed3830b76ea1a171286b67eff783c51d0348d40dd1",
      "blockNumber": "0x210c11b",
      "gasUsed": "0xa90f",
      "effectiveGasPrice": "0x120452",
      "from": "0xf521a4fe5910b4fb4a14c9546c2837d33bec455d",
      "to": "0x2213414893259b0c48066acd1763e7fba97859e5",
      "contractAddress": null,
      "l1BaseFeeScalar": "0x8dd",
      "l1BlobBaseFee": "0x1",
      "l1BlobBaseFeeScalar": "0x101c12",
      "l1Fee": "0x1f1c0423",
      "l1GasPrice": "0x891b3a1",
      "l1GasUsed": "0x640"
    },
    {
      "status": "0x1",
      "cumulativeGasUsed": "0x212cfa7",
      "logs": [
        {
          "address": "0x2213414893259b0c48066acd1763e7fba97859e5",
          "topics": [
            "0xddf252ad1be2c89b69c2b068fc378daa952ba7f163c4a11628f55a4df523b3ef",
            "0x0000000000000000000000000000000000000000000000000000000000000000",
            "0x0000000000000000000000006ece9b29610fdd909155c154cacffee7d6273bac"
          ],
          "data": "0x000000000000000000000000000000000000000000008c7590a725fbb9900000",
          "blockHash": "0x8ef2bbea72ea3e2aee9058c2216deb8490913920df1825cc4bab1ed9b0a88c49",
          "blockNumber": "0x210c11b",
          "blockTimestamp": "0x68abdf19",
          "transactionHash": "0x1d7c8471d0da2e8756428e80578c1b71ef85e578d99d8e2869d7ca9ab52de127",
          "transactionIndex": "0xcb",
          "logIndex": "0x1b1",
          "removed": false
        }
      ],
      "logsBloom": "0x00000000000000000000000000010000000000000000000000000000000000000000000000000000000000000000000000000000000200000000000000000000000000000000000000000008000000000000000000000000000000000000000000000000020000000000001000000800000000000000000000000010000000000000000000000000000000000000000000000000000000000000000000002000000000008000000000000000000008000000000000000000000000000000000000000002000000000000000000000000000000000000000000000000000020000000000000000000000000000000000000000000000000000000000000000000",
      "type": "0x2",
      "transactionHash": "0x1d7c8471d0da2e8756428e80578c1b71ef85e578d99d8e2869d7ca9ab52de127",
      "transactionIndex": "0xcb",
      "blockHash": "0x8ef2bbea72ea3e2aee9058c2216deb8490913920df1825cc4bab1ed9b0a88c49",
      "blockNumber": "0x210c11b",
      "gasUsed": "0xa8eb",
      "effectiveGasPrice": "0x120452",
      "from": "0xf521a4fe5910b4fb4a14c9546c2837d33bec455d",
      "to": "0x2213414893259b0c48066acd1763e7fba97859e5",
      "contractAddress": null,
      "l1BaseFeeScalar": "0x8dd",
      "l1BlobBaseFee": "0x1",
      "l1BlobBaseFeeScalar": "0x101c12",
      "l1Fee": "0x1f1c0423",
      "l1GasPrice": "0x891b3a1",
      "l1GasUsed": "0x640"
    },
    {
      "status": "0x1",
      "cumulativeGasUsed": "0x2137892",
      "logs": [
        {
          "address": "0x2213414893259b0c48066acd1763e7fba97859e5",
          "topics": [
            "0xddf252ad1be2c89b69c2b068fc378daa952ba7f163c4a11628f55a4df523b3ef",
            "0x0000000000000000000000000000000000000000000000000000000000000000",
            "0x00000000000000000000000059cee22ee277133d153612b3122f6e867445dbb7"
          ],
          "data": "0x00000000000000000000000000000000000000000000192829310a9fb6400000",
          "blockHash": "0x8ef2bbea72ea3e2aee9058c2216deb8490913920df1825cc4bab1ed9b0a88c49",
          "blockNumber": "0x210c11b",
          "blockTimestamp": "0x68abdf19",
          "transactionHash": "0xe5f588d85bb64010a9d308115f3e81f6f17e14231c6f65394d8dac0355fc8fe2",
          "transactionIndex": "0xcc",
          "logIndex": "0x1b2",
          "removed": false
        }
      ],
      "logsBloom": "0x00000000000000000000000000010000000000000000000000000000000000000000000000000000000000000000000000000000000000000000000000000000000000000000000000000008000000000000000000000000000000000000000000000000020000000000000000000800000000000000000000000010000000000000000800000000000000000000000000000000000000000000800000000000000000008000000000000000000008000000000000000000000001000000000000000002000000000000000000000000000000000000000000000000000020000000000000000000000000000000000000000000000000000000000000000000",
      "type": "0x2",
      "transactionHash": "0xe5f588d85bb64010a9d308115f3e81f6f17e14231c6f65394d8dac0355fc8fe2",
      "transactionIndex": "0xcc",
      "blockHash": "0x8ef2bbea72ea3e2aee9058c2216deb8490913920df1825cc4bab1ed9b0a88c49",
      "blockNumber": "0x210c11b",
      "gasUsed": "0xa8eb",
      "effectiveGasPrice": "0x120452",
      "from": "0xf521a4fe5910b4fb4a14c9546c2837d33bec455d",
      "to": "0x2213414893259b0c48066acd1763e7fba97859e5",
      "contractAddress": null,
      "l1BaseFeeScalar": "0x8dd",
      "l1BlobBaseFee": "0x1",
      "l1BlobBaseFeeScalar": "0x101c12",
      "l1Fee": "0x1f1c0423",
      "l1GasPrice": "0x891b3a1",
      "l1GasUsed": "0x640"
    },
    {
      "status": "0x1",
      "cumulativeGasUsed": "0x2142195",
      "logs": [
        {
          "address": "0x2213414893259b0c48066acd1763e7fba97859e5",
          "topics": [
            "0xddf252ad1be2c89b69c2b068fc378daa952ba7f163c4a11628f55a4df523b3ef",
            "0x0000000000000000000000000000000000000000000000000000000000000000",
            "0x000000000000000000000000195b4ca4568ea0051551d8e96502ce2a36269576"
          ],
          "data": "0x0000000000000000000000000000000000000000000009cf9d859e2a24591659",
          "blockHash": "0x8ef2bbea72ea3e2aee9058c2216deb8490913920df1825cc4bab1ed9b0a88c49",
          "blockNumber": "0x210c11b",
          "blockTimestamp": "0x68abdf19",
          "transactionHash": "0xd41ed7c5d81e23521e013e07f37f2c3e91e6c99de822005de979e8bc94cc7425",
          "transactionIndex": "0xcd",
          "logIndex": "0x1b3",
          "removed": false
        }
      ],
      "logsBloom": "0x00000000000000000000000000010000000000000000000000000000000000000000000000000000000000000000000000000000000000000000000000000000000000000000000000000008000000000000000000000000000000000000000000000000020000000000000000000800000000000000000000000010004000000000000000000000000000000000010000000000000000000000000000000000000000008000000000000000000008000000000000000000000000000000000000000002000000000000000000000000000000800000000000000000000020000000000000000000000000000000000000000000000000000000000000000000",
      "type": "0x2",
      "transactionHash": "0xd41ed7c5d81e23521e013e07f37f2c3e91e6c99de822005de979e8bc94cc7425",
      "transactionIndex": "0xcd",
      "blockHash": "0x8ef2bbea72ea3e2aee9058c2216deb8490913920df1825cc4bab1ed9b0a88c49",
      "blockNumber": "0x210c11b",
      "gasUsed": "0xa903",
      "effectiveGasPrice": "0x120452",
      "from": "0xf521a4fe5910b4fb4a14c9546c2837d33bec455d",
      "to": "0x2213414893259b0c48066acd1763e7fba97859e5",
      "contractAddress": null,
      "l1BaseFeeScalar": "0x8dd",
      "l1BlobBaseFee": "0x1",
      "l1BlobBaseFeeScalar": "0x101c12",
      "l1Fee": "0x1f1c0423",
      "l1GasPrice": "0x891b3a1",
      "l1GasUsed": "0x640"
    },
    {
      "status": "0x1",
      "cumulativeGasUsed": "0x214ca80",
      "logs": [
        {
          "address": "0x2213414893259b0c48066acd1763e7fba97859e5",
          "topics": [
            "0xddf252ad1be2c89b69c2b068fc378daa952ba7f163c4a11628f55a4df523b3ef",
            "0x0000000000000000000000000000000000000000000000000000000000000000",
            "0x000000000000000000000000f8bcf76357a358d225dcd431a7238052ce206249"
          ],
          "data": "0x0000000000000000000000000000000000000000000002135032c41393840000",
          "blockHash": "0x8ef2bbea72ea3e2aee9058c2216deb8490913920df1825cc4bab1ed9b0a88c49",
          "blockNumber": "0x210c11b",
          "blockTimestamp": "0x68abdf19",
          "transactionHash": "0x58dda68e1335bd31ba7aac4f9767cbb8c7ac29180f7e999e8afa225459daee8b",
          "transactionIndex": "0xce",
          "logIndex": "0x1b4",
          "removed": false
        }
      ],
      "logsBloom": "0x00000000000000000000000000010000000000000000000000000000000000000000000000000000000000000000000000000000000000000000000000000000000010000000000000200008000000000000000000000000000000000000000000000000020000000000000000000800000000000000000000000010000000000000000000000000000000000000000000000000000000000000000000000000000000008000000000000000000008000000000000000000000000000000000000000002000000000000000000000000000000000000000000000000000020000000000000000000000000000000000000001000000000000000000000000000",
      "type": "0x2",
      "transactionHash": "0x58dda68e1335bd31ba7aac4f9767cbb8c7ac29180f7e999e8afa225459daee8b",
      "transactionIndex": "0xce",
      "blockHash": "0x8ef2bbea72ea3e2aee9058c2216deb8490913920df1825cc4bab1ed9b0a88c49",
      "blockNumber": "0x210c11b",
      "gasUsed": "0xa8eb",
      "effectiveGasPrice": "0x120452",
      "from": "0xf521a4fe5910b4fb4a14c9546c2837d33bec455d",
      "to": "0x2213414893259b0c48066acd1763e7fba97859e5",
      "contractAddress": null,
      "l1BaseFeeScalar": "0x8dd",
      "l1BlobBaseFee": "0x1",
      "l1BlobBaseFeeScalar": "0x101c12",
      "l1Fee": "0x1f1c0423",
      "l1GasPrice": "0x891b3a1",
      "l1GasUsed": "0x640"
    },
    {
      "status": "0x1",
      "cumulativeGasUsed": "0x2157377",
      "logs": [
        {
          "address": "0x2213414893259b0c48066acd1763e7fba97859e5",
          "topics": [
            "0xddf252ad1be2c89b69c2b068fc378daa952ba7f163c4a11628f55a4df523b3ef",
            "0x0000000000000000000000000000000000000000000000000000000000000000",
            "0x00000000000000000000000012e31f706010ae0996a2d8247c432d9102e3c871"
          ],
          "data": "0x00000000000000000000000000000000000000000000006405bfe58a5fafe0d0",
          "blockHash": "0x8ef2bbea72ea3e2aee9058c2216deb8490913920df1825cc4bab1ed9b0a88c49",
          "blockNumber": "0x210c11b",
          "blockTimestamp": "0x68abdf19",
          "transactionHash": "0x60910f82d468f544985aff1695736a7f461c54c5108c70122eba43ad5074c18d",
          "transactionIndex": "0xcf",
          "logIndex": "0x1b5",
          "removed": false
        }
      ],
      "logsBloom": "0x00000000000000000000000000010000000000000000000000000000000000000000000000000000000000000000000000000000000000000000000000000000000000000000000000000008000000000000000000000000000000000000000000000000020000000000000000000800000000000000000000000010000000000000000000000000000000080000000000000000000000000000000000000000000000008000000000000000000008000000000000000000000000000000000000000002000000000000000800000000000000000000000000000000000020000000000000000000000000000000010000000000000000000000000000000000",
      "type": "0x2",
      "transactionHash": "0x60910f82d468f544985aff1695736a7f461c54c5108c70122eba43ad5074c18d",
      "transactionIndex": "0xcf",
      "blockHash": "0x8ef2bbea72ea3e2aee9058c2216deb8490913920df1825cc4bab1ed9b0a88c49",
      "blockNumber": "0x210c11b",
      "gasUsed": "0xa8f7",
      "effectiveGasPrice": "0x120452",
      "from": "0xf521a4fe5910b4fb4a14c9546c2837d33bec455d",
      "to": "0x2213414893259b0c48066acd1763e7fba97859e5",
      "contractAddress": null,
      "l1BaseFeeScalar": "0x8dd",
      "l1BlobBaseFee": "0x1",
      "l1BlobBaseFeeScalar": "0x101c12",
      "l1Fee": "0x1f1c0423",
      "l1GasPrice": "0x891b3a1",
      "l1GasUsed": "0x640"
    },
    {
      "status": "0x1",
      "cumulativeGasUsed": "0x26b408a",
      "logs": [
        {
          "address": "0x2213414893259b0c48066acd1763e7fba97859e5",
          "topics": [
            "0xddf252ad1be2c89b69c2b068fc378daa952ba7f163c4a11628f55a4df523b3ef",
            "0x0000000000000000000000000000000000000000000000000000000000000000",
            "0x000000000000000000000000557c7cb60e536c437ac96b361539257b0e2c35c5"
          ],
          "data": "0x00000000000000000000000000000000000000000000003c4dd1ed28d437abee",
          "blockHash": "0x8a1d8a89fa4d1bd87ab9ad3d5c9c0729c127b41b0490a767c8059324e62ad9ae",
          "blockNumber": "0x210c11b",
          "blockTimestamp": "0x68abdf19",
          "transactionHash": "0x9843308ad056a1b003a72b5455092f6958a5d293d814869d19073a15844a9402",
          "transactionIndex": "0xe8",
          "logIndex": "0x212",
          "removed": false
        }
      ],
      "logsBloom": "0x00000000000000000000000000010000000000000000000000000000000000000000000000000000000000000000000000000000000000000000000000000000000000000000008000000008000000000000008000000000000000000000000000000000020000000000000000000800000000000000000000000010000000000000000000000000000040000000000000000000000000000000000000000000000000008000000000000000000008000000000000000000000000000000000000000002000000000000000000000000000000000000000000000000000020000000000000000000000000000000000000000000000000000000000000000000",
      "type": "0x2",
      "transactionHash": "0x9843308ad056a1b003a72b5455092f6958a5d293d814869d19073a15844a9402",
      "transactionIndex": "0xe8",
      "blockHash": "0x8a1d8a89fa4d1bd87ab9ad3d5c9c0729c127b41b0490a767c8059324e62ad9ae",
      "blockNumber": "0x210c11b",
      "gasUsed": "0xa8f7",
      "effectiveGasPrice": "0x120452",
      "from": "0xf521a4fe5910b4fb4a14c9546c2837d33bec455d",
      "to": "0x2213414893259b0c48066acd1763e7fba97859e5",
      "contractAddress": null,
      "l1BaseFeeScalar": "0x8dd",
      "l1BlobBaseFee": "0x1",
      "l1BlobBaseFeeScalar": "0x101c12",
      "l1Fee": "0x1f1c0423",
      "l1GasPrice": "0x891b3a1",
      "l1GasUsed": "0x640"
    },
    {
      "status": "0x1",
      "cumulativeGasUsed": "0x26be975",
      "logs": [
        {
          "address": "0x2213414893259b0c48066acd1763e7fba97859e5",
          "topics": [
            "0xddf252ad1be2c89b69c2b068fc378daa952ba7f163c4a11628f55a4df523b3ef",
            "0x0000000000000000000000000000000000000000000000000000000000000000",
            "0x0000000000000000000000001db4286a9a7637f8347fc53b71daa9235c129b41"
          ],
          "data": "0x0000000000000000000000000000000000000000000000356feea3cf4be18000",
          "blockHash": "0x8a1d8a89fa4d1bd87ab9ad3d5c9c0729c127b41b0490a767c8059324e62ad9ae",
          "blockNumber": "0x210c11b",
          "blockTimestamp": "0x68abdf19",
          "transactionHash": "0x1b82ab2315defd0d869d30b554d8e35569bd53c35e5ea6e0720b43d2469530a1",
          "transactionIndex": "0xe9",
          "logIndex": "0x213",
          "removed": false
        }
      ],
      "logsBloom": "0x00000000000000000000000000010000000000000000000000000000000000000000000000000000008000000000000000000000000000000000000000000000000000000000000000000008000000000000000000000000000000000000000000000000020000000000000000000800000000000000000000400010000000000000000000000000000000000000000000000000000000000000000000000000000000008000000000000000000008000000000000000000000000000000200000000002000000000000000000000000000000000000000000000000000020000000000000000000000000000000000000000000000000000000000000000000",
      "type": "0x2",
      "transactionHash": "0x1b82ab2315defd0d869d30b554d8e35569bd53c35e5ea6e0720b43d2469530a1",
      "transactionIndex": "0xe9",
      "blockHash": "0x8a1d8a89fa4d1bd87ab9ad3d5c9c0729c127b41b0490a767c8059324e62ad9ae",
      "blockNumber": "0x210c11b",
      "gasUsed": "0xa8eb",
      "effectiveGasPrice": "0x120452",
      "from": "0xf521a4fe5910b4fb4a14c9546c2837d33bec455d",
      "to": "0x2213414893259b0c48066acd1763e7fba97859e5",
      "contractAddress": null,
      "l1BaseFeeScalar": "0x8dd",
      "l1BlobBaseFee": "0x1",
      "l1BlobBaseFeeScalar": "0x101c12",
      "l1Fee": "0x1f1c0423",
      "l1GasPrice": "0x891b3a1",
      "l1GasUsed": "0x640"
    },
    {
      "status": "0x1",
      "cumulativeGasUsed": "0x26c9254",
      "logs": [
        {
          "address": "0x2213414893259b0c48066acd1763e7fba97859e5",
          "topics": [
            "0xddf252ad1be2c89b69c2b068fc378daa952ba7f163c4a11628f55a4df523b3ef",
            "0x0000000000000000000000000000000000000000000000000000000000000000",
            "0x000000000000000000000000af32ca0c109318a36aa2e10f38611d5b64b72a03"
          ],
          "data": "0x0000000000000000000000000000000000000000000000203367ecda66080000",
          "blockHash": "0x8ef2bbea72ea3e2aee9058c2216deb8490913920df1825cc4bab1ed9b0a88c49",
          "blockNumber": "0x210c11b",
          "blockTimestamp": "0x68abdf19",
          "transactionHash": "0x04bfacc285131bebfb7185804c0678d0729c1b45c104adb85d568e1abdbb0a5e",
          "transactionIndex": "0xea",
          "logIndex": "0x214",
          "removed": false
        }
      ],
      "logsBloom": "0x00000000000000000000000000010000000000000000000000000000000000000000000000000000000000000000000000000000000000000000000000000000000000000000000000000008000000000000000000000000000000000000000000000000020000000000000000000800000000000000000000000010000000000000000000000000000000000000000000000000000000000000000000000000000000008000000000000100000008000000000000000000000000000000000000000002000000000000000000000000100000000000000000000000000020000000000000000000000010000000000000000000000000000000000000000000",
      "type": "0x2",
      "transactionHash": "0x04bfacc285131bebfb7185804c0678d0729c1b45c104adb85d568e1abdbb0a5e",
      "transactionIndex": "0xea",
      "blockHash": "0x8ef2bbea72ea3e2aee9058c2216deb8490913920df1825cc4bab1ed9b0a88c49",
      "blockNumber": "0x210c11b",
      "gasUsed": "0xa8df",
      "effectiveGasPrice": "0x120452",
      "from": "0xf521a4fe5910b4fb4a14c9546c2837d33bec455d",
      "to": "0x2213414893259b0c48066acd1763e7fba97859e5",
      "contractAddress": null,
      "l1BaseFeeScalar": "0x8dd",
      "l1BlobBaseFee": "0x1",
      "l1BlobBaseFeeScalar": "0x101c12",
      "l1Fee": "0x1f1c0423",
      "l1GasPrice": "0x891b3a1",
      "l1GasUsed": "0x640"
    },
    {
      "status": "0x1",
      "cumulativeGasUsed": "0x2c3f512",
      "logs": [
        {
          "address": "0x2213414893259b0c48066acd1763e7fba97859e5",
          "topics": [
            "0xddf252ad1be2c89b69c2b068fc378daa952ba7f163c4a11628f55a4df523b3ef",
            "0x0000000000000000000000000000000000000000000000000000000000000000",
            "0x000000000000000000000000ffde42d40175b3b9349dfb384439dcb811691e09"
          ],
          "data": "0x00000000000000000000000000000000000000000000001ad5814560aa5c0000",
          "blockHash": "0x8ef2bbea72ea3e2aee9058c2216deb8490913920df1825cc4bab1ed9b0a88c49",
          "blockNumber": "0x210c11b",
          "blockTimestamp": "0x68abdf19",
          "transactionHash": "0x073005bfc5ac9f1caa664cc7b175e96e3028699c135add22cfe7355772a32135",
          "transactionIndex": "0x112",
          "logIndex": "0x251",
          "removed": false
        }
      ],
      "logsBloom": "0x00000000000000000000000000010000000000000000000000000000000000000000000000000000000000000000000000000000000000000000000000000000000000000000000000000008000000000000000000000000000000000000000000000000020000000000000000000800000000000000000000000010000000000000000800000000000000000000000000000000000000000000000000000000000000008000000000000000000008000000000000000000000000000000000000000002000000000040000000000000000000000000000000000000000020000000000000000000080000000000000000000000000000000000000000000000",
      "type": "0x2",
      "transactionHash": "0x073005bfc5ac9f1caa664cc7b175e96e3028699c135add22cfe7355772a32135",
      "transactionIndex": "0x112",
      "blockHash": "0x8ef2bbea72ea3e2aee9058c2216deb8490913920df1825cc4bab1ed9b0a88c49",
      "blockNumber": "0x210c11b",
      "gasUsed": "0xa8df",
      "effectiveGasPrice": "0x120452",
      "from": "0xf521a4fe5910b4fb4a14c9546c2837d33bec455d",
      "to": "0x2213414893259b0c48066acd1763e7fba97859e5",
      "contractAddress": null,
      "l1BaseFeeScalar": "0x8dd",
      "l1BlobBaseFee": "0x1",
      "l1BlobBaseFeeScalar": "0x101c12",
      "l1Fee": "0x1f1c0423",
      "l1GasPrice": "0x891b3a1",
      "l1GasUsed": "0x640"
    },
    {
      "status": "0x1",
      "cumulativeGasUsed": "0x2c49df1",
      "logs": [
        {
          "address": "0x2213414893259b0c48066acd1763e7fba97859e5",
          "topics": [
            "0xddf252ad1be2c89b69c2b068fc378daa952ba7f163c4a11628f55a4df523b3ef",
            "0x0000000000000000000000000000000000000000000000000000000000000000",
            "0x00000000000000000000000081759dbf79eadb24b1bfe197a833fa89179b0cbd"
          ],
          "data": "0x00000000000000000000000000000000000000000000001ad5814560aa5c0000",
          "blockHash": "0x8ef2bbea72ea3e2aee9058c2216deb8490913920df1825cc4bab1ed9b0a88c49",
          "blockNumber": "0x210c11b",
          "blockTimestamp": "0x68abdf19",
          "transactionHash": "0xab2bc8044e9b2811b7e17afd8c11d2972ec2edb4429f5e100b4d2087416b666c",
          "transactionIndex": "0x113",
          "logIndex": "0x252",
          "removed": false
        }
      ],
      "logsBloom": "0x00000000000000000000000000010000000000000000000000000000000000000000000000000000000000000000000000000000000000000000000000000000000000200000000000000008000000000000000000000000000000002000000000000000020000000000000000000800000000000000000000000010000000000000000000000000000000000000000000000000000000000000000000000000000000008000000000000000000008000000000000001000000000000000000000000002000000000000000000000000000000000000000000000000000020000000000000000000000000000000000000000000000000000000000000000000",
      "type": "0x2",
      "transactionHash": "0xab2bc8044e9b2811b7e17afd8c11d2972ec2edb4429f5e100b4d2087416b666c",
      "transactionIndex": "0x113",
      "blockHash": "0x8ef2bbea72ea3e2aee9058c2216deb8490913920df1825cc4bab1ed9b0a88c49",
      "blockNumber": "0x210c11b",
      "gasUsed": "0xa8df",
      "effectiveGasPrice": "0x120452",
      "from": "0xf521a4fe5910b4fb4a14c9546c2837d33bec455d",
      "to": "0x2213414893259b0c48066acd1763e7fba97859e5",
      "contractAddress": null,
      "l1BaseFeeScalar": "0x8dd",
      "l1BlobBaseFee": "0x1",
      "l1BlobBaseFeeScalar": "0x101c12",
      "l1Fee": "0x1f1c0423",
      "l1GasPrice": "0x891b3a1",
      "l1GasUsed": "0x640"
    },
    {
      "status": "0x1",
      "cumulativeGasUsed": "0x2c546e8",
      "logs": [
        {
          "address": "0x2213414893259b0c48066acd1763e7fba97859e5",
          "topics": [
            "0xddf252ad1be2c89b69c2b068fc378daa952ba7f163c4a11628f55a4df523b3ef",
            "0x0000000000000000000000000000000000000000000000000000000000000000",
            "0x00000000000000000000000024344de334423fe32044bcd2aac9db832f6eeac7"
          ],
          "data": "0x00000000000000000000000000000000000000000000001a39fb50b115f07e7b",
          "blockHash": "0x8ef2bbea72ea3e2aee9058c2216deb8490913920df1825cc4bab1ed9b0a88c49",
          "blockNumber": "0x210c11b",
          "blockTimestamp": "0x68abdf19",
          "transactionHash": "0xf88c3f634f9f0027eb1c166725fb1410013b6b70945fea982488f2ac6f5d7566",
          "transactionIndex": "0x114",
          "logIndex": "0x253",
          "removed": false
        }
      ],
      "logsBloom": "0x00000000000000000000000000010000000000000000000000000000000000000000000000000000000000000000000000000000200000020000000000000000000000000000000000000008000000000000000000000000000000000000000000000000020000000000000000000800000000000000000000000010000000000000000000000000000000000000000000000000000000000000000000000000000000008000000000000000000008000000000000000000000000000000000000000002000000000000000000000000000000000000000000000000000020000000000000000000000000000000000000001000000000000000000000000000",
      "type": "0x2",
      "transactionHash": "0xf88c3f634f9f0027eb1c166725fb1410013b6b70945fea982488f2ac6f5d7566",
      "transactionIndex": "0x114",
      "blockHash": "0x8ef2bbea72ea3e2aee9058c2216deb8490913920df1825cc4bab1ed9b0a88c49",
      "blockNumber": "0x210c11b",
      "gasUsed": "0xa8f7",
      "effectiveGasPrice": "0x120452",
      "from": "0xf521a4fe5910b4fb4a14c9546c2837d33bec455d",
      "to": "0x2213414893259b0c48066acd1763e7fba97859e5",
      "contractAddress": null,
      "l1BaseFeeScalar": "0x8dd",
      "l1BlobBaseFee": "0x1",
      "l1BlobBaseFeeScalar": "0x101c12",
      "l1Fee": "0x1f1c0423",
      "l1GasPrice": "0x891b3a1",
      "l1GasUsed": "0x640"
    },
    {
      "status": "0x1",
      "cumulativeGasUsed": "0x304cd82",
      "logs": [
        {
          "address": "0x2213414893259b0c48066acd1763e7fba97859e5",
          "topics": [
            "0xddf252ad1be2c89b69c2b068fc378daa952ba7f163c4a11628f55a4df523b3ef",
            "0x0000000000000000000000000000000000000000000000000000000000000000",
            "0x00000000000000000000000092cb926a465164c522198208fb963f0e63a89d15"
          ],
          "data": "0x000000000000000000000000000000000000000000000015779a9de6eeb00000",
          "blockHash": "0x8ef2bbea72ea3e2aee9058c2216deb8490913920df1825cc4bab1ed9b0a88c49",
          "blockNumber": "0x210c11b",
          "blockTimestamp": "0x68abdf19",
          "transactionHash": "0xf3e9130162c3498ef5cceb3153e669dccd15f980abd2e8329a718d4b5fc1d7e7",
          "transactionIndex": "0x12a",
          "logIndex": "0x270",
          "removed": false
        }
      ],
      "logsBloom": "0x00000000000000000000000000010000000000000004000000000000000000000000000000000000000000000800000000000000000000000000000000000000000000000000000000000008000000000000000000000000000000000000000000000000020000000000000000000800000000000000000000000010000000000000000000000000000000000000000000000000000000000000000000000000000100008000000000000000000008000000000000000000000000000000000000000002000000000000000000000000000000000000000000000000000020000000000000000000000000000000000000000000000000000000000000000000",
      "type": "0x2",
      "transactionHash": "0xf3e9130162c3498ef5cceb3153e669dccd15f980abd2e8329a718d4b5fc1d7e7",
      "transactionIndex": "0x12a",
      "blockHash": "0x8ef2bbea72ea3e2aee9058c2216deb8490913920df1825cc4bab1ed9b0a88c49",
      "blockNumber": "0x210c11b",
      "gasUsed": "0xa8df",
      "effectiveGasPrice": "0x120452",
      "from": "0xf521a4fe5910b4fb4a14c9546c2837d33bec455d",
      "to": "0x2213414893259b0c48066acd1763e7fba97859e5",
      "contractAddress": null,
      "l1BaseFeeScalar": "0x8dd",
      "l1BlobBaseFee": "0x1",
      "l1BlobBaseFeeScalar": "0x101c12",
      "l1Fee": "0x1f1c0423",
      "l1GasPrice": "0x891b3a1",
      "l1GasUsed": "0x640"
    },
    {
      "status": "0x1",
      "cumulativeGasUsed": "0x3057679",
      "logs": [
        {
          "address": "0x2213414893259b0c48066acd1763e7fba97859e5",
          "topics": [
            "0xddf252ad1be2c89b69c2b068fc378daa952ba7f163c4a11628f55a4df523b3ef",
            "0x0000000000000000000000000000000000000000000000000000000000000000",
            "0x0000000000000000000000005d64d14d2cf4fe5fe4e65b1c7e3d11e18d493091"
          ],
          "data": "0x000000000000000000000000000000000000000000000006c91178ff872399da",
          "blockHash": "0x8ef2bbea72ea3e2aee9058c2216deb8490913920df1825cc4bab1ed9b0a88c49",
          "blockNumber": "0x210c11b",
          "blockTimestamp": "0x68abdf19",
          "transactionHash": "0x0a499383a5ea9d7b24cfde77888775a8dd1a59bbf36cdee23d638ad375753433",
          "transactionIndex": "0x12b",
          "logIndex": "0x271",
          "removed": false
        }
      ],
      "logsBloom": "0x00000000000000000000000000010000000000040000000000000000000000000000000000000000000000000000000000000000000000000000000000000000000000000000000000000008000000000000000000000000000000000000000000000000020000000000000000000800000800000000000000000010000000000000000000000000000000000000000000000000000000000000000000000000000000008000000000000000000008000000000000000000000000000000000000000002000000000000000000000000000000000000000000000000000020000000000000000000000000000000000000000000000000000000000000000000",
      "type": "0x2",
      "transactionHash": "0x0a499383a5ea9d7b24cfde77888775a8dd1a59bbf36cdee23d638ad375753433",
      "transactionIndex": "0x12b",
      "blockHash": "0x8ef2bbea72ea3e2aee9058c2216deb8490913920df1825cc4bab1ed9b0a88c49",
      "blockNumber": "0x210c11b",
      "gasUsed": "0xa8f7",
      "effectiveGasPrice": "0x120452",
      "from": "0xf521a4fe5910b4fb4a14c9546c2837d33bec455d",
      "to": "0x2213414893259b0c48066acd1763e7fba97859e5",
      "contractAddress": null,
      "l1BaseFeeScalar": "0x8dd",
      "l1BlobBaseFee": "0x1",
      "l1BlobBaseFeeScalar": "0x101c12",
      "l1Fee": "0x1f1c0423",
      "l1GasPrice": "0x891b3a1",
      "l1GasUsed": "0x640"
    },
    {
      "status": "0x1",
      "cumulativeGasUsed": "0x3061f64",
      "logs": [
        {
          "address": "0x2213414893259b0c48066acd1763e7fba97859e5",
          "topics": [
            "0xddf252ad1be2c89b69c2b068fc378daa952ba7f163c4a11628f55a4df523b3ef",
            "0x0000000000000000000000000000000000000000000000000000000000000000",
            "0x000000000000000000000000ad541da7f18a5151411ed8f83c4727a9f45ea3b2"
          ],
          "data": "0x00000000000000000000000000000000000000000000000630d42200093258f3",
          "blockHash": "0x8ef2bbea72ea3e2aee9058c2216deb8490913920df1825cc4bab1ed9b0a88c49",
          "blockNumber": "0x210c11b",
          "blockTimestamp": "0x68abdf19",
          "transactionHash": "0x69885477830e9e9d8694ca71265fd41bd14c20a9be4e896da7ef723b3985509e",
          "transactionIndex": "0x12c",
          "logIndex": "0x272",
          "removed": false
        }
      ],
      "logsBloom": "0x41000000000000000000000000010000000000000000000000000000000000000000000000000000000000000000000000000000000000000000000000000000000000000000000000000008000000000000000000000000000000000000000000000000020000000000000000000800000000000000000000000010000000000000000000000000000000000000000000000000000000000000000000000000000000008000000000000000000008000000000000000000000000000000000000000002200000000000000000000000000000000000000000000000000020000000000000000000000000000000000000000000000000000000000000000000",
      "type": "0x2",
      "transactionHash": "0x69885477830e9e9d8694ca71265fd41bd14c20a9be4e896da7ef723b3985509e",
      "transactionIndex": "0x12c",
      "blockHash": "0x8ef2bbea72ea3e2aee9058c2216deb8490913920df1825cc4bab1ed9b0a88c49",
      "blockNumber": "0x210c11b",
      "gasUsed": "0xa8eb",
      "effectiveGasPrice": "0x120452",
      "from": "0xf521a4fe5910b4fb4a14c9546c2837d33bec455d",
      "to": "0x2213414893259b0c48066acd1763e7fba97859e5",
      "contractAddress": null,
      "l1BaseFeeScalar": "0x8dd",
      "l1BlobBaseFee": "0x1",
      "l1BlobBaseFeeScalar": "0x101c12",
      "l1Fee": "0x1f1c0423",
      "l1GasPrice": "0x891b3a1",
      "l1GasUsed": "0x640"
    },
    {
      "status": "0x1",
      "cumulativeGasUsed": "0x306c843",
      "logs": [
        {
          "address": "0x2213414893259b0c48066acd1763e7fba97859e5",
          "topics": [
            "0xddf252ad1be2c89b69c2b068fc378daa952ba7f163c4a11628f55a4df523b3ef",
            "0x0000000000000000000000000000000000000000000000000000000000000000",
            "0x00000000000000000000000086924c37a93734e8611eb081238928a9d18a63c0"
          ],
          "data": "0x000000000000000000000000000000000000000000000002daea52f3f6460000",
          "blockHash": "0x8ef2bbea72ea3e2aee9058c2216deb8490913920df1825cc4bab1ed9b0a88c49",
          "blockNumber": "0x210c11b",
          "blockTimestamp": "0x68abdf19",
          "transactionHash": "0xe97bd1f047ecfe2b4e23446599104cc2558ec6deb347256368dbafc347c26550",
          "transactionIndex": "0x12d",
          "logIndex": "0x273",
          "removed": false
        }
      ],
      "logsBloom": "0x00000000000000000000000000010000000000000000000000000000000000000000000000000000000000000000000000000000000000000000000000000000000000000000000000000008000000000000000000000000000000000000000000000000020000000000000000000800000000000000000000000010000000000000000000000000000000000000000000000000000000000000000000000000000000008000000000000000000008000000000000000000000000000000000000000002000000001000000000000800000000000000000000000000000020000000000000000000000000000000000002000000000000000000000000000000",
      "type": "0x2",
      "transactionHash": "0xe97bd1f047ecfe2b4e23446599104cc2558ec6deb347256368dbafc347c26550",
      "transactionIndex": "0x12d",
      "blockHash": "0x8ef2bbea72ea3e2aee9058c2216deb8490913920df1825cc4bab1ed9b0a88c49",
      "blockNumber": "0x210c11b",
      "gasUsed": "0xa8df",
      "effectiveGasPrice": "0x120452",
      "from": "0xf521a4fe5910b4fb4a14c9546c2837d33bec455d",
      "to": "0x2213414893259b0c48066acd1763e7fba97859e5",
      "contractAddress": null,
      "l1BaseFeeScalar": "0x8dd",
      "l1BlobBaseFee": "0x1",
      "l1BlobBaseFeeScalar": "0x101c12",
      "l1Fee": "0x1f1c0423",
      "l1GasPrice": "0x891b3a1",
      "l1GasUsed": "0x640"
    },
    {
      "status": "0x1",
      "cumulativeGasUsed": "0x307713a",
      "logs": [
        {
          "address": "0x2213414893259b0c48066acd1763e7fba97859e5",
          "topics": [
            "0xddf252ad1be2c89b69c2b068fc378daa952ba7f163c4a11628f55a4df523b3ef",
            "0x0000000000000000000000000000000000000000000000000000000000000000",
            "0x000000000000000000000000cfd59c0f530db36eea8ccbfe744f01fe3556925e"
          ],
          "data": "0x000000000000000000000000000000000000000000000001c117f5d70535c93c",
          "blockHash": "0x8ef2bbea72ea3e2aee9058c2216deb8490913920df1825cc4bab1ed9b0a88c49",
          "blockNumber": "0x210c11b",
          "blockTimestamp": "0x68abdf19",
          "transactionHash": "0x28dfc3613ac2d475cb6d46f360afeaecff0445ead350c48f0da4039505c48a0b",
          "transactionIndex": "0x12e",
          "logIndex": "0x274",
          "removed": false
        }
      ],
      "logsBloom": "0x00000000000000000000000000010000000000000000000000000000000000000000000000000000000000000000000000000000000000000000000008000000000000000000000000000008000000000000000000000000000000000000000000000000020000000000000000000800000000000000000000000010000000000000000000000000000000000000000000000000000000000000000000000000000000008000000000000000000008000000000000000000000000000004000000000022000000000000000000000000000000000000000000000000000020000000000000000000000000000000000000000000000000000000000000000000",
      "type": "0x2",
      "transactionHash": "0x28dfc3613ac2d475cb6d46f360afeaecff0445ead350c48f0da4039505c48a0b",
      "transactionIndex": "0x12e",
      "blockHash": "0x8ef2bbea72ea3e2aee9058c2216deb8490913920df1825cc4bab1ed9b0a88c49",
      "blockNumber": "0x210c11b",
      "gasUsed": "0xa8f7",
      "effectiveGasPrice": "0x120452",
      "from": "0xf521a4fe5910b4fb4a14c9546c2837d33bec455d",
      "to": "0x2213414893259b0c48066acd1763e7fba97859e5",
      "contractAddress": null,
      "l1BaseFeeScalar": "0x8dd",
      "l1BlobBaseFee": "0x1",
      "l1BlobBaseFeeScalar": "0x101c12",
      "l1Fee": "0x1f1c0423",
      "l1GasPrice": "0x891b3a1",
      "l1GasUsed": "0x640"
    },
    {
      "status": "0x1",
      "cumulativeGasUsed": "0x3081a31",
      "logs": [
        {
          "address": "0x2213414893259b0c48066acd1763e7fba97859e5",
          "topics": [
            "0xddf252ad1be2c89b69c2b068fc378daa952ba7f163c4a11628f55a4df523b3ef",
            "0x0000000000000000000000000000000000000000000000000000000000000000",
            "0x000000000000000000000000a120bf97a89d7fa0927e76c093169fa7cfaca3bb"
          ],
          "data": "0x000000000000000000000000000000000000000000000001a4fda69cdc587037",
          "blockHash": "0x8ef2bbea72ea3e2aee9058c2216deb8490913920df1825cc4bab1ed9b0a88c49",
          "blockNumber": "0x210c11b",
          "blockTimestamp": "0x68abdf19",
          "transactionHash": "0x712d306a51d612423cc1c8597ae9a361fe2ea420e0e344765435e6095065eb73",
          "transactionIndex": "0x12f",
          "logIndex": "0x275",
          "removed": false
        }
      ],
      "logsBloom": "0x00000000000000000000000000010000000000000000000000000000000000000000000000000000000000000000000000000001000000000000000000000004000000000000000000000008000000000000000000000000000000000000000000000000020000000000000000000800010000000000000000000010000000000000000000000000000000000000000000000000000000000000000000000000000000008000000000000000000008000000000000000000000000000000000000000002000000000000000000000000000000000000000000000000000020000000000000000000000000000000000000000000000000000000000000000000",
      "type": "0x2",
      "transactionHash": "0x712d306a51d612423cc1c8597ae9a361fe2ea420e0e344765435e6095065eb73",
      "transactionIndex": "0x12f",
      "blockHash": "0x8ef2bbea72ea3e2aee9058c2216deb8490913920df1825cc4bab1ed9b0a88c49",
      "blockNumber": "0x210c11b",
      "gasUsed": "0xa8f7",
      "effectiveGasPrice": "0x120452",
      "from": "0xf521a4fe5910b4fb4a14c9546c2837d33bec455d",
      "to": "0x2213414893259b0c48066acd1763e7fba97859e5",
      "contractAddress": null,
      "l1BaseFeeScalar": "0x8dd",
      "l1BlobBaseFee": "0x1",
      "l1BlobBaseFeeScalar": "0x101c12",
      "l1Fee": "0x1f1c0423",
      "l1GasPrice": "0x891b3a1",
      "l1GasUsed": "0x640"
    },
    {
      "status": "0x1",
      "cumulativeGasUsed": "0x308c2f8",
      "logs": [
        {
          "address": "0x2213414893259b0c48066acd1763e7fba97859e5",
          "topics": [
            "0xddf252ad1be2c89b69c2b068fc378daa952ba7f163c4a11628f55a4df523b3ef",
            "0x0000000000000000000000000000000000000000000000000000000000000000",
            "0x000000000000000000000000f00000003d31d4ab730a8e269ae547f8f76996ba"
          ],
          "data": "0x000000000000000000000000000000000000000000000000d1d98ee2568a9e75",
          "blockHash": "0x8ef2bbea72ea3e2aee9058c2216deb8490913920df1825cc4bab1ed9b0a88c49",
          "blockNumber": "0x210c11b",
          "blockTimestamp": "0x68abdf19",
          "transactionHash": "0x8e5db8442aa3ff1ced5adcc986554936fcf68e9bf8fdb2ba6eeb6ba8dde0e857",
          "transactionIndex": "0x130",
          "logIndex": "0x276",
          "removed": false
        }
      ],
      "logsBloom": "0x00000000000000000000000000010000000000000000000000000000000000000000000000000000000000000000000000000000000000000000000000000000000000000000000000000008000000000000000000000000000000000000000000000000020000000000000000000800000000000000000000000010000000000000000000000000000000000000000000000000000000000000000000000004000000008000000000000000000008000000000000000000000000000000000000000002000000000000000000000000000004000000000000000000000020000000000000000000000000000000000000000000000000000000000020000000",
      "type": "0x2",
      "transactionHash": "0x8e5db8442aa3ff1ced5adcc986554936fcf68e9bf8fdb2ba6eeb6ba8dde0e857",
      "transactionIndex": "0x130",
      "blockHash": "0x8ef2bbea72ea3e2aee9058c2216deb8490913920df1825cc4bab1ed9b0a88c49",
      "blockNumber": "0x210c11b",
      "gasUsed": "0xa8c7",
      "effectiveGasPrice": "0x120452",
      "from": "0xf521a4fe5910b4fb4a14c9546c2837d33bec455d",
      "to": "0x2213414893259b0c48066acd1763e7fba97859e5",
      "contractAddress": null,
      "l1BaseFeeScalar": "0x8dd",
      "l1BlobBaseFee": "0x1",
      "l1BlobBaseFeeScalar": "0x101c12",
      "l1Fee": "0x1f1c0423",
      "l1GasPrice": "0x891b3a1",
      "l1GasUsed": "0x640"
    },
    {
      "status": "0x1",
      "cumulativeGasUsed": "0x3096be3",
      "logs": [
        {
          "address": "0x2213414893259b0c48066acd1763e7fba97859e5",
          "topics": [
            "0xddf252ad1be2c89b69c2b068fc378daa952ba7f163c4a11628f55a4df523b3ef",
            "0x0000000000000000000000000000000000000000000000000000000000000000",
            "0x000000000000000000000000c073c7acf73f0de6981ae4bbd8832c875d70b459"
          ],
          "data": "0x000000000000000000000000000000000000000000000000a7b96ce64dd7146f",
          "blockHash": "0x8ef2bbea72ea3e2aee9058c2216deb8490913920df1825cc4bab1ed9b0a88c49",
          "blockNumber": "0x210c11b",
          "blockTimestamp": "0x68abdf19",
          "transactionHash": "0x7a6a2651fb419b76c92743010a1ae4d218af3765dab7f0814dee535db49c40bc",
          "transactionIndex": "0x131",
          "logIndex": "0x277",
          "removed": false
        }
      ],
      "logsBloom": "0x00000000000000000000000000010000800000000000000000000000000000000000000000000000000000000000000000000000000000000000000000000000000000000000000000000008000000000000000000000000000000000000000040000000020000000000000000000800000000000000000000000010000000000000000000000000000000000000000000000000000000000000000000000000000000008000000000000000000008000000000000000000000000000000000000000002000000000000000000000000000000000000000000000000000020000000000000000000000002000000000000000000000000000000000000000000",
      "type": "0x2",
      "transactionHash": "0x7a6a2651fb419b76c92743010a1ae4d218af3765dab7f0814dee535db49c40bc",
      "transactionIndex": "0x131",
      "blockHash": "0x8ef2bbea72ea3e2aee9058c2216deb8490913920df1825cc4bab1ed9b0a88c49",
      "blockNumber": "0x210c11b",
      "gasUsed": "0xa8eb",
      "effectiveGasPrice": "0x120452",
      "from": "0xf521a4fe5910b4fb4a14c9546c2837d33bec455d",
      "to": "0x2213414893259b0c48066acd1763e7fba97859e5",
      "contractAddress": null,
      "l1BaseFeeScalar": "0x8dd",
      "l1BlobBaseFee": "0x1",
      "l1BlobBaseFeeScalar": "0x101c12",
      "l1Fee": "0x1f1c0423",
      "l1GasPrice": "0x891b3a1",
      "l1GasUsed": "0x640"
    },
    {
      "status": "0x1",
      "cumulativeGasUsed": "0x30a14ce",
      "logs": [
        {
          "address": "0x2213414893259b0c48066acd1763e7fba97859e5",
          "topics": [
            "0xddf252ad1be2c89b69c2b068fc378daa952ba7f163c4a11628f55a4df523b3ef",
            "0x0000000000000000000000000000000000000000000000000000000000000000",
            "0x0000000000000000000000004f82e73edb06d29ff62c91ec8f5ff06571bdeb29"
          ],
          "data": "0x00000000000000000000000000000000000000000000000090a98df6971ff2c4",
          "blockHash": "0x8ef2bbea72ea3e2aee9058c2216deb8490913920df1825cc4bab1ed9b0a88c49",
          "blockNumber": "0x210c11b",
          "blockTimestamp": "0x68abdf19",
          "transactionHash": "0xc32ec6a6207bb729f43b69d8f7cd99b5333513e81b352ee5ece0b71aa4b2f8d4",
          "transactionIndex": "0x132",
          "logIndex": "0x278",
          "removed": false
        }
      ],
      "logsBloom": "0x00000000000000000000000000010000000000000000000008000000000000000000000000000000000000000000000000000000000000000000000000000000000000000000000000000008000000000000000000000000000000000000000000000000020000000000000000000800000000000000000000000010000000000000000000000000000000000000000000000000040000000000000000000000000000008000000000000000000008000000002000000000000000000000000000000002000000000000000000000000000000000000000000000000000020000000000000000000000000000000000000000000000000000000000000000000",
      "type": "0x2",
      "transactionHash": "0xc32ec6a6207bb729f43b69d8f7cd99b5333513e81b352ee5ece0b71aa4b2f8d4",
      "transactionIndex": "0x132",
      "blockHash": "0x8ef2bbea72ea3e2aee9058c2216deb8490913920df1825cc4bab1ed9b0a88c49",
      "blockNumber": "0x210c11b",
      "gasUsed": "0xa8eb",
      "effectiveGasPrice": "0x120452",
      "from": "0xf521a4fe5910b4fb4a14c9546c2837d33bec455d",
      "to": "0x2213414893259b0c48066acd1763e7fba97859e5",
      "contractAddress": null,
      "l1BaseFeeScalar": "0x8dd",
      "l1BlobBaseFee": "0x1",
      "l1BlobBaseFeeScalar": "0x101c12",
      "l1Fee": "0x1f1c0423",
      "l1GasPrice": "0x891b3a1",
      "l1GasUsed": "0x640"
    },
    {
      "status": "0x1",
      "cumulativeGasUsed": "0x30abdb9",
      "logs": [
        {
          "address": "0x2213414893259b0c48066acd1763e7fba97859e5",
          "topics": [
            "0xddf252ad1be2c89b69c2b068fc378daa952ba7f163c4a11628f55a4df523b3ef",
            "0x0000000000000000000000000000000000000000000000000000000000000000",
            "0x0000000000000000000000009cb8d9bae84830b7f5f11ee5048c04a80b8514ba"
          ],
          "data": "0x00000000000000000000000000000000000000000000000077d7bf3f609bb599",
          "blockHash": "0x8ef2bbea72ea3e2aee9058c2216deb8490913920df1825cc4bab1ed9b0a88c49",
          "blockNumber": "0x210c11b",
          "blockTimestamp": "0x68abdf19",
          "transactionHash": "0xf8a93333e9231e6bb007ca9d247840cb2bf3037d95f10b12a9bf9f2a8cf7ab0b",
          "transactionIndex": "0x133",
          "logIndex": "0x279",
          "removed": false
        }
      ],
      "logsBloom": "0x00002000000000000000000000010000000000000000000000000000000000000000000000000000000000000000000000000000000000000000000000000000000000000000000000000008000000000000000000000000000000000000000000000000020000000000000000000800000000000000000000000010000000000000000000000000000002000000000000000000010000000000000000000000000000008000000000000000000008000000000000000000000000000000000000000002000000000000000000000000000000000000000000000000000020000000000000000000000000000000000000000000000000000000000000000000",
      "type": "0x2",
      "transactionHash": "0xf8a93333e9231e6bb007ca9d247840cb2bf3037d95f10b12a9bf9f2a8cf7ab0b",
      "transactionIndex": "0x133",
      "blockHash": "0x8ef2bbea72ea3e2aee9058c2216deb8490913920df1825cc4bab1ed9b0a88c49",
      "blockNumber": "0x210c11b",
      "gasUsed": "0xa8eb",
      "effectiveGasPrice": "0x120452",
      "from": "0xf521a4fe5910b4fb4a14c9546c2837d33bec455d",
      "to": "0x2213414893259b0c48066acd1763e7fba97859e5",
      "contractAddress": null,
      "l1BaseFeeScalar": "0x8dd",
      "l1BlobBaseFee": "0x1",
      "l1BlobBaseFeeScalar": "0x101c12",
      "l1Fee": "0x1f1c0423",
      "l1GasPrice": "0x891b3a1",
      "l1GasUsed": "0x640"
    },
    {
      "status": "0x1",
      "cumulativeGasUsed": "0x30b66a4",
      "logs": [
        {
          "address": "0x2213414893259b0c48066acd1763e7fba97859e5",
          "topics": [
            "0xddf252ad1be2c89b69c2b068fc378daa952ba7f163c4a11628f55a4df523b3ef",
            "0x0000000000000000000000000000000000000000000000000000000000000000",
            "0x000000000000000000000000471f5a59a463daaa7d619573901111275c559489"
          ],
          "data": "0x000000000000000000000000000000000000000000000000714e75513a638d51",
          "blockHash": "0x8ef2bbea72ea3e2aee9058c2216deb8490913920df1825cc4bab1ed9b0a88c49",
          "blockNumber": "0x210c11b",
          "blockTimestamp": "0x68abdf19",
          "transactionHash": "0x5f4d29d7ceadb8e98ef9579a9d72472a02588507fd57b882cbb5822e2004baae",
          "transactionIndex": "0x134",
          "logIndex": "0x27a",
          "removed": false
        }
      ],
      "logsBloom": "0x00000000000000000000000000010000000000000000000000000000000000000000000000000000000000000000000000000000000000000000000000000000000000000000000000000008000000000000000000200000000000000000000000000000020000000000000000000800000000000000000000000010000000000000000000000000000000000000000000001000000000000000000000000000000000008000000000000000000008000002000000000000000000000000000000000002000000000000000000000000000000000000000000000000000020000000000000000000000000000000000000000000000000000000000000000000",
      "type": "0x2",
      "transactionHash": "0x5f4d29d7ceadb8e98ef9579a9d72472a02588507fd57b882cbb5822e2004baae",
      "transactionIndex": "0x134",
      "blockHash": "0x8ef2bbea72ea3e2aee9058c2216deb8490913920df1825cc4bab1ed9b0a88c49",
      "blockNumber": "0x210c11b",
      "gasUsed": "0xa8eb",
      "effectiveGasPrice": "0x120452",
      "from": "0xf521a4fe5910b4fb4a14c9546c2837d33bec455d",
      "to": "0x2213414893259b0c48066acd1763e7fba97859e5",
      "contractAddress": null,
      "l1BaseFeeScalar": "0x8dd",
      "l1BlobBaseFee": "0x1",
      "l1BlobBaseFeeScalar": "0x101c12",
      "l1Fee": "0x1f1c0423",
      "l1GasPrice": "0x891b3a1",
      "l1GasUsed": "0x640"
    },
    {
      "status": "0x1",
      "cumulativeGasUsed": "0x33516b3",
      "logs": [
        {
          "address": "0x2213414893259b0c48066acd1763e7fba97859e5",
          "topics": [
            "0xddf252ad1be2c89b69c2b068fc378daa952ba7f163c4a11628f55a4df523b3ef",
            "0x0000000000000000000000000000000000000000000000000000000000000000",
            "0x000000000000000000000000e5b89fa771049df021dcf3817bfc756bb2f85f96"
          ],
          "data": "0x000000000000000000000000000000000000000000000000512e647fd870766d",
          "blockHash": "0x8ef2bbea72ea3e2aee9058c2216deb8490913920df1825cc4bab1ed9b0a88c49",
          "blockNumber": "0x210c11b",
          "blockTimestamp": "0x68abdf19",
          "transactionHash": "0xaa91d6b852f941352208f05d9e15c75d60036288ff2de09fb5647e5d46e92219",
          "transactionIndex": "0x146",
          "logIndex": "0x290",
          "removed": false
        }
      ],
      "logsBloom": "0x00000000000000000000000000010000000000000000000000000000000000000000000000000000000000000000000000000000000000000000000000000000000000000000000000000008000000000000000000000000000000000000000000000000020000000000000000000800000000000000040000000010000000000000002000000000000000000000000000000000000000000000000000000000000000008000000000000000000008000004000000000000000000000000000000000002000000000000000000000000000000000000000000000000000020000000000000000000000000000000000000000000000000000000000000000000",
      "type": "0x2",
      "transactionHash": "0xaa91d6b852f941352208f05d9e15c75d60036288ff2de09fb5647e5d46e92219",
      "transactionIndex": "0x146",
      "blockHash": "0x8ef2bbea72ea3e2aee9058c2216deb8490913920df1825cc4bab1ed9b0a88c49",
      "blockNumber": "0x210c11b",
      "gasUsed": "0xa8eb",
      "effectiveGasPrice": "0x120452",
      "from": "0xf521a4fe5910b4fb4a14c9546c2837d33bec455d",
      "to": "0x2213414893259b0c48066acd1763e7fba97859e5",
      "contractAddress": null,
      "l1BaseFeeScalar": "0x8dd",
      "l1BlobBaseFee": "0x1",
      "l1BlobBaseFeeScalar": "0x101c12",
      "l1Fee": "0x1f1c0423",
      "l1GasPrice": "0x891b3a1",
      "l1GasUsed": "0x640"
    },
    {
      "status": "0x1",
      "cumulativeGasUsed": "0x34c50aa",
      "logs": [
        {
          "address": "0x2213414893259b0c48066acd1763e7fba97859e5",
          "topics": [
            "0xddf252ad1be2c89b69c2b068fc378daa952ba7f163c4a11628f55a4df523b3ef",
            "0x0000000000000000000000000000000000000000000000000000000000000000",
            "0x000000000000000000000000ec6c1427a9308c47624899cb3454bd34a424fa8f"
          ],
          "data": "0x000000000000000000000000000000000000000000000000432b8b39d2eca477",
          "blockHash": "0x8ef2bbea72ea3e2aee9058c2216deb8490913920df1825cc4bab1ed9b0a88c49",
          "blockNumber": "0x210c11b",
          "blockTimestamp": "0x68abdf19",
          "transactionHash": "0x447575fab1b1ac72d3e04a225dfeb415a163bce97a83222484bc1f536abeb72a",
          "transactionIndex": "0x148",
          "logIndex": "0x291",
          "removed": false
        }
      ],
      "logsBloom": "0x00000000000000000000001000010000000000000000000000000000000000000000000000000000000000000000000000000000000000000000000000000000000000000000000000000008000000000000000000000000000000000000000000000000020000000000000000000800000000000000000000000010000000000000000000000000000000000000000000000000000000000000000000000000000000008000000000000000000008000000000000000000000000000000000000000002000000000000000000000000800000000000000000000000000120000000000000000000000000000000000000000000000000000000000000000000",
      "type": "0x2",
      "transactionHash": "0x447575fab1b1ac72d3e04a225dfeb415a163bce97a83222484bc1f536abeb72a",
      "transactionIndex": "0x148",
      "blockHash": "0x8ef2bbea72ea3e2aee9058c2216deb8490913920df1825cc4bab1ed9b0a88c49",
      "blockNumber": "0x210c11b",
      "gasUsed": "0xa8eb",
      "effectiveGasPrice": "0x120452",
      "from": "0xf521a4fe5910b4fb4a14c9546c2837d33bec455d",
      "to": "0x2213414893259b0c48066acd1763e7fba97859e5",
      "contractAddress": null,
      "l1BaseFeeScalar": "0x8dd",
      "l1BlobBaseFee": "0x1",
      "l1BlobBaseFeeScalar": "0x101c12",
      "l1Fee": "0x1f1c0423",
      "l1GasPrice": "0x891b3a1",
      "l1GasUsed": "0x640"
    },
    {
      "status": "0x1",
      "cumulativeGasUsed": "0x34e472e",
      "logs": [
        {
          "address": "0x2213414893259b0c48066acd1763e7fba97859e5",
          "topics": [
            "0xddf252ad1be2c89b69c2b068fc378daa952ba7f163c4a11628f55a4df523b3ef",
            "0x0000000000000000000000000000000000000000000000000000000000000000",
            "0x000000000000000000000000382ffce2287252f930e1c8dc9328dac5bf282ba1"
          ],
          "data": "0x0000000000000000000000000000000000000000000000003205c17718e62673",
          "blockHash": "0x8ef2bbea72ea3e2aee9058c2216deb8490913920df1825cc4bab1ed9b0a88c49",
          "blockNumber": "0x210c11b",
          "blockTimestamp": "0x68abdf19",
          "transactionHash": "0x309602ca7fd9fc247866babe0e12d4b47a96da3ffeda3a0d1439fcddd42eb9d3",
          "transactionIndex": "0x14b",
          "logIndex": "0x292",
          "removed": false
        }
      ],
      "logsBloom": "0x00000000000000000000000000010000000000000000000000000000000000000000000000000000000000000000000000200000000000000000000000000000000000000000000000000008000000000000002000000000000000000000000000000000020000000000000000000800000000000000000000000010000000000000000000000000000000000000000000000000000000000000000000001000000000008000000000000000000008000000000000000000000000000000000000000002000000000000000000000000000000000000000000000000000020000000000000000000000000000000000000000000000000000000000000000000",
      "type": "0x2",
      "transactionHash": "0x309602ca7fd9fc247866babe0e12d4b47a96da3ffeda3a0d1439fcddd42eb9d3",
      "transactionIndex": "0x14b",
      "blockHash": "0x8ef2bbea72ea3e2aee9058c2216deb8490913920df1825cc4bab1ed9b0a88c49",
      "blockNumber": "0x210c11b",
      "gasUsed": "0xa8eb",
      "effectiveGasPrice": "0x120452",
      "from": "0xf521a4fe5910b4fb4a14c9546c2837d33bec455d",
      "to": "0x2213414893259b0c48066acd1763e7fba97859e5",
      "contractAddress": null,
      "l1BaseFeeScalar": "0x8dd",
      "l1BlobBaseFee": "0x1",
      "l1BlobBaseFeeScalar": "0x101c12",
      "l1Fee": "0x1f1c0423",
      "l1GasPrice": "0x891b3a1",
      "l1GasUsed": "0x640"
    },
    {
      "status": "0x1",
      "cumulativeGasUsed": "0x34ef019",
      "logs": [
        {
          "address": "0x2213414893259b0c48066acd1763e7fba97859e5",
          "topics": [
            "0xddf252ad1be2c89b69c2b068fc378daa952ba7f163c4a11628f55a4df523b3ef",
            "0x0000000000000000000000000000000000000000000000000000000000000000",
            "0x000000000000000000000000ad01c20d5886137e056775af56915de824c8fce5"
          ],
          "data": "0x000000000000000000000000000000000000000000000000083dd5e6bc44de39",
          "blockHash": "0x8ef2bbea72ea3e2aee9058c2216deb8490913920df1825cc4bab1ed9b0a88c49",
          "blockNumber": "0x210c11b",
          "blockTimestamp": "0x68abdf19",
          "transactionHash": "0x16b8e7b4382578c56cb982e74f40d80e1fec6f2c138f252f3edadd30e6087f56",
          "transactionIndex": "0x14c",
          "logIndex": "0x293",
          "removed": false
        }
      ],
      "logsBloom": "0x00000000000000000000000000010000000000000000000000000000000000000000000000000000000000000000000000000000000040000000000000000000000000000000000000000008000000000000000000000000000000000000000000000000020000000000000000000800000000000000000000000010000000000000000000000000000000000000000000000000000000000000000000000000000010008000000000000000000008000000000000000000000000000000000000000002000000000000000000000000080000000000000000000000000020000000000000000000000000000000000000000000000000000000000000000000",
      "type": "0x2",
      "transactionHash": "0x16b8e7b4382578c56cb982e74f40d80e1fec6f2c138f252f3edadd30e6087f56",
      "transactionIndex": "0x14c",
      "blockHash": "0x8ef2bbea72ea3e2aee9058c2216deb8490913920df1825cc4bab1ed9b0a88c49",
      "blockNumber": "0x210c11b",
      "gasUsed": "0xa8eb",
      "effectiveGasPrice": "0x120452",
      "from": "0xf521a4fe5910b4fb4a14c9546c2837d33bec455d",
      "to": "0x2213414893259b0c48066acd1763e7fba97859e5",
      "contractAddress": null,
      "l1BaseFeeScalar": "0x8dd",
      "l1BlobBaseFee": "0x1",
      "l1BlobBaseFeeScalar": "0x101c12",
      "l1Fee": "0x1f1c0423",
      "l1GasPrice": "0x891b3a1",
      "l1GasUsed": "0x640"
    },
    {
      "status": "0x1",
      "cumulativeGasUsed": "0x3c68060",
      "logs": [
        {
          "address": "0x2213414893259b0c48066acd1763e7fba97859e5",
          "topics": [
            "0xddf252ad1be2c89b69c2b068fc378daa952ba7f163c4a11628f55a4df523b3ef",
            "0x0000000000000000000000000000000000000000000000000000000000000000",
            "0x00000000000000000000000000000009e70d153a81f4c972dd123c4b71b7441c"
          ],
          "data": "0x00000000000000000000000000000000000000000000000000d79d858d03a103",
          "blockHash": "0x8ef2bbea72ea3e2aee9058c2216deb8490913920df1825cc4bab1ed9b0a88c49",
          "blockNumber": "0x210c11b",
          "blockTimestamp": "0x68abdf19",
          "transactionHash": "0x7b29d154be0cf99af75673601f33ed9bef55ab4f224ded779a0f9bedd5d52133",
          "transactionIndex": "0x166",
          "logIndex": "0x2b5",
          "removed": false
        }
      ],
      "logsBloom": "0x00000000000000000000000000010000000000000000000000000000000000000000000000000000000000000000000000000000000000000000000000000000000000000000000000080008000000000000000000000000000000000000000400000000020000000000000000000800000000000000000000000010000000000000000000000000000000000000000000000000000000000000000000000000000000008000000004000000000008000000000000000000000000000000000000000002000000000000000000000000000000000000000000000000000020000000000000000000000000000000000000000000000000000000000000000000",
      "type": "0x2",
      "transactionHash": "0x7b29d154be0cf99af75673601f33ed9bef55ab4f224ded779a0f9bedd5d52133",
      "transactionIndex": "0x166",
      "blockHash": "0x8ef2bbea72ea3e2aee9058c2216deb8490913920df1825cc4bab1ed9b0a88c49",
      "blockNumber": "0x210c11b",
      "gasUsed": "0xa8bb",
      "effectiveGasPrice": "0x120452",
      "from": "0xf521a4fe5910b4fb4a14c9546c2837d33bec455d",
      "to": "0x2213414893259b0c48066acd1763e7fba97859e5",
      "contractAddress": null,
      "l1BaseFeeScalar": "0x8dd",
      "l1BlobBaseFee": "0x1",
      "l1BlobBaseFeeScalar": "0x101c12",
      "l1Fee": "0x1f1c0423",
      "l1GasPrice": "0x891b3a1",
      "l1GasUsed": "0x640"
    },
    {
      "status": "0x1",
      "cumulativeGasUsed": "0x9e6ba9",
      "logs": [
        {
          "address": "0x2213414893259b0c48066acd1763e7fba97859e5",
          "topics": [
            "0xddf252ad1be2c89b69c2b068fc378daa952ba7f163c4a11628f55a4df523b3ef",
            "0x0000000000000000000000000000000000000000000000000000000000000000",
            "0x000000000000000000000000f85e95bef8f2de7782b0936ca3480c41a4b6c59b"
          ],
          "data": "0x00000000000000000000000000000000000000000000000000adb13ea50a25fc",
          "blockHash": "0x180efd8cfcaca5fcc9a97003c2463c5182867b2481a93f21dcd4569275ff52d6",
          "blockNumber": "0x210c11c",
          "blockTimestamp": "0x68abdf1b",
          "transactionHash": "0x3fbd478dc7f677675c2977b8eabcbd31fbb7a47ab27a0f12eaf12309b46fa272",
          "transactionIndex": "0x34",
          "logIndex": "0x61",
          "removed": false
        }
      ],
      "logsBloom": "0x00000000000000000000000200010000000000000200000000000000200000000000000000000000000000000000000000000000000000000000000000000000000000000000000000000008000000000000000000000000000000000000000000000000020000000000000000000800000000000000000000000010000000000000000000000000000000000000000000000000000000000000000000000000000000008000000000000000000008000000000000000000000000000000000000000002000000000000000000000000000000000000000000000000000020000000000000000000000000000000000000000000000000000000000000000000",
      "type": "0x2",
      "transactionHash": "0x3fbd478dc7f677675c2977b8eabcbd31fbb7a47ab27a0f12eaf12309b46fa272",
      "transactionIndex": "0x34",
      "blockHash": "0x180efd8cfcaca5fcc9a97003c2463c5182867b2481a93f21dcd4569275ff52d6",
      "blockNumber": "0x210c11c",
      "gasUsed": "0xa8df",
      "effectiveGasPrice": "0x120d67",
      "from": "0xf521a4fe5910b4fb4a14c9546c2837d33bec455d",
      "to": "0x2213414893259b0c48066acd1763e7fba97859e5",
      "contractAddress": null,
      "l1BaseFeeScalar": "0x8dd",
      "l1BlobBaseFee": "0x1",
      "l1BlobBaseFeeScalar": "0x101c12",
      "l1Fee": "0x1f1c0423",
      "l1GasPrice": "0x891b3a1",
      "l1GasUsed": "0x640"
    },
    {
      "status": "0x1",
      "cumulativeGasUsed": "0x9f147c",
      "logs": [
        {
          "address": "0x2213414893259b0c48066acd1763e7fba97859e5",
          "topics": [
            "0xddf252ad1be2c89b69c2b068fc378daa952ba7f163c4a11628f55a4df523b3ef",
            "0x0000000000000000000000000000000000000000000000000000000000000000",
            "0x000000000000000000000000006004d6c39590d39310a0d34181e15d9ade3902"
          ],
          "data": "0x000000000000000000000000000000000000000000000000001b297fa180fc38",
          "blockHash": "0x180efd8cfcaca5fcc9a97003c2463c5182867b2481a93f21dcd4569275ff52d6",
          "blockNumber": "0x210c11c",
          "blockTimestamp": "0x68abdf1b",
          "transactionHash": "0x4933c76bdd8b178f0b06d023ec61312642ca5d6750e46bc08b1fec6e2b8ea4db",
          "transactionIndex": "0x35",
          "logIndex": "0x62",
          "removed": false
        }
      ],
      "logsBloom": "0x00000000000000000000000000010000000000000000000000000000000000000000000000000000000000000000000000000000000000000000000000000000000000000000000000000008000000000000000000000000000000000000000000000000020000000008000000000800000000000000000000000010000000000000000000000000000000000000000000000000000000000000000000000000000000008000000000000000000008000000000000000000000000000000000000000002000000000000000000000000000000000000000000000000000020000000000000000000000008000000000000010000000000000000000000000000",
      "type": "0x2",
      "transactionHash": "0x4933c76bdd8b178f0b06d023ec61312642ca5d6750e46bc08b1fec6e2b8ea4db",
      "transactionIndex": "0x35",
      "blockHash": "0x180efd8cfcaca5fcc9a97003c2463c5182867b2481a93f21dcd4569275ff52d6",
      "blockNumber": "0x210c11c",
      "gasUsed": "0xa8d3",
      "effectiveGasPrice": "0x120d67",
      "from": "0xf521a4fe5910b4fb4a14c9546c2837d33bec455d",
      "to": "0x2213414893259b0c48066acd1763e7fba97859e5",
      "contractAddress": null,
      "l1BaseFeeScalar": "0x8dd",
      "l1BlobBaseFee": "0x1",
      "l1BlobBaseFeeScalar": "0x101c12",
      "l1Fee": "0x1f1c0423",
      "l1GasPrice": "0x891b3a1",
      "l1GasUsed": "0x640"
    },
    {
      "status": "0x1",
      "cumulativeGasUsed": "0x9fbd37",
      "logs": [
        {
          "address": "0x2213414893259b0c48066acd1763e7fba97859e5",
          "topics": [
            "0xddf252ad1be2c89b69c2b068fc378daa952ba7f163c4a11628f55a4df523b3ef",
            "0x0000000000000000000000000000000000000000000000000000000000000000",
            "0x000000000000000000000000a71f09bb63fe0e420d9740e46e28f0057fba68f8"
          ],
          "data": "0x0000000000000000000000000000000000000000000000000000000003d3fd9a",
          "blockHash": "0x180efd8cfcaca5fcc9a97003c2463c5182867b2481a93f21dcd4569275ff52d6",
          "blockNumber": "0x210c11c",
          "blockTimestamp": "0x68abdf1b",
          "transactionHash": "0xc5b0ef61f2cdf2eba841901e7c0a14b4705e2a6878cc18dc5826bb3c5a916ab1",
          "transactionIndex": "0x36",
          "logIndex": "0x63",
          "removed": false
        }
      ],
      "logsBloom": "0x00000000000000010000000000010000000000000000000000000000000000000000000000000000000000000000000000000000000000000000000000000000000000000000000000000008000000000000000000000000000000000000000000000000020000000000000000000800000000000000000000000010000000000000000000000000000000000000000000000000000000000000000020000000000000008000000000000000000008000000000000000000000000000000000000000002000008000000000000000000000000000000000000000000000020000000000000000000000000000000000000000000000000000000000000000000",
      "type": "0x2",
      "transactionHash": "0xc5b0ef61f2cdf2eba841901e7c0a14b4705e2a6878cc18dc5826bb3c5a916ab1",
      "transactionIndex": "0x36",
      "blockHash": "0x180efd8cfcaca5fcc9a97003c2463c5182867b2481a93f21dcd4569275ff52d6",
      "blockNumber": "0x210c11c",
      "gasUsed": "0xa8bb",
      "effectiveGasPrice": "0x120d67",
      "from": "0xf521a4fe5910b4fb4a14c9546c2837d33bec455d",
      "to": "0x2213414893259b0c48066acd1763e7fba97859e5",
      "contractAddress": null,
      "l1BaseFeeScalar": "0x8dd",
      "l1BlobBaseFee": "0x1",
      "l1BlobBaseFeeScalar": "0x101c12",
      "l1Fee": "0x1f1c0423",
      "l1GasPrice": "0x891b3a1",
      "l1GasUsed": "0x640"
    },
    {
      "status": "0x1",
      "cumulativeGasUsed": "0xa065da",
      "logs": [
        {
          "address": "0x2213414893259b0c48066acd1763e7fba97859e5",
          "topics": [
            "0xddf252ad1be2c89b69c2b068fc378daa952ba7f163c4a11628f55a4df523b3ef",
            "0x0000000000000000000000000000000000000000000000000000000000000000",
            "0x00000000000000000000000003e8254fde84a8601c97c8682fd525db4494dfb6"
          ],
          "data": "0x0000000000000000000000000000000000000000000000000000000000009735",
          "blockHash": "0x180efd8cfcaca5fcc9a97003c2463c5182867b2481a93f21dcd4569275ff52d6",
          "blockNumber": "0x210c11c",
          "blockTimestamp": "0x68abdf1b",
          "transactionHash": "0x820da65c0bb2cd4bc4230e9ee9ebeff4ba50094803c73c56ecbab1f58fb72ae7",
          "transactionIndex": "0x37",
          "logIndex": "0x64",
          "removed": false
        }
      ],
      "logsBloom": "0x00000080000000010000000000010000000000000000000000000000000000000000000000000000000000000000000000000000000000400000000000000000000000000000000000000008000000000000000000000000000000000000000000000000020000000000000000000800000000000000000000000010000000000000000000000000000000000000000000000000000000000000000000000000000000008000000000000000000008000000000000000000000000000000000000000002000000000000000000000000000000000000000000000000000020000000000000000000000000000000000000000000000000000000000000000000",
      "type": "0x2",
      "transactionHash": "0x820da65c0bb2cd4bc4230e9ee9ebeff4ba50094803c73c56ecbab1f58fb72ae7",
      "transactionIndex": "0x37",
      "blockHash": "0x180efd8cfcaca5fcc9a97003c2463c5182867b2481a93f21dcd4569275ff52d6",
      "blockNumber": "0x210c11c",
      "gasUsed": "0xa8a3",
      "effectiveGasPrice": "0x120d67",
      "from": "0xf521a4fe5910b4fb4a14c9546c2837d33bec455d",
      "to": "0x2213414893259b0c48066acd1763e7fba97859e5",
      "contractAddress": null,
      "l1BaseFeeScalar": "0x8dd",
      "l1BlobBaseFee": "0x1",
      "l1BlobBaseFeeScalar": "0x101c12",
      "l1Fee": "0x1f1c0423",
      "l1GasPrice": "0x891b3a1",
      "l1GasUsed": "0x640"
    },
    {
      "status": "0x1",
      "cumulativeGasUsed": "0xa10e7d",
      "logs": [
        {
          "address": "0x2213414893259b0c48066acd1763e7fba97859e5",
          "topics": [
            "0xddf252ad1be2c89b69c2b068fc378daa952ba7f163c4a11628f55a4df523b3ef",
            "0x0000000000000000000000000000000000000000000000000000000000000000",
            "0x000000000000000000000000498581ff718922c3f8e6a244956af099b2652b2b"
          ],
          "data": "0x0000000000000000000000000000000000000000000000000000000000000a71",
          "blockHash": "0x180efd8cfcaca5fcc9a97003c2463c5182867b2481a93f21dcd4569275ff52d6",
          "blockNumber": "0x210c11c",
          "blockTimestamp": "0x68abdf1b",
          "transactionHash": "0x60d15ff2de395dd6f839b7c27a9da21b536cbd62c711c62e9cb64b8ca7fb3015",
          "transactionIndex": "0x38",
          "logIndex": "0x65",
          "removed": false
        }
      ],
      "logsBloom": "0x00000000000000000000000000010000000000000000000000000000000000000020000000000000000000000000000000000000000000000000000000000000000000000000000000000008000000000000000000000000000000000000000000000000020000000000000000000800000000000000000000000010000000000000000000000000000000000000000000000000000000000000000400000000004000008000000000000000000008000000000000000000000000000000000000000002000000000000000000000000000000000000000000000000000020000000000000000000000000000000000000000000000000000000000000000000",
      "type": "0x2",
      "transactionHash": "0x60d15ff2de395dd6f839b7c27a9da21b536cbd62c711c62e9cb64b8ca7fb3015",
      "transactionIndex": "0x38",
      "blockHash": "0x180efd8cfcaca5fcc9a97003c2463c5182867b2481a93f21dcd4569275ff52d6",
      "blockNumber": "0x210c11c",
      "gasUsed": "0xa8a3",
      "effectiveGasPrice": "0x120d67",
      "from": "0xf521a4fe5910b4fb4a14c9546c2837d33bec455d",
      "to": "0x2213414893259b0c48066acd1763e7fba97859e5",
      "contractAddress": null,
      "l1BaseFeeScalar": "0x8dd",
      "l1BlobBaseFee": "0x1",
      "l1BlobBaseFeeScalar": "0x101c12",
      "l1Fee": "0x1f1c0423",
      "l1GasPrice": "0x891b3a1",
      "l1GasUsed": "0x640"
    },
    {
      "status": "0x1",
      "cumulativeGasUsed": "0xa1b714",
      "logs": [
        {
          "address": "0x2213414893259b0c48066acd1763e7fba97859e5",
          "topics": [
            "0xddf252ad1be2c89b69c2b068fc378daa952ba7f163c4a11628f55a4df523b3ef",
            "0x0000000000000000000000000000000000000000000000000000000000000000",
            "0x0000000000000000000000009f4e276675f50c271d1c8e202479dabccb69ced0"
          ],
          "data": "0x00000000000000000000000000000000000000000000000000000000000000c6",
          "blockHash": "0x180efd8cfcaca5fcc9a97003c2463c5182867b2481a93f21dcd4569275ff52d6",
          "blockNumber": "0x210c11c",
          "blockTimestamp": "0x68abdf1b",
          "transactionHash": "0x3b6ee989760590bd3e0ae9b1337ca2e61ae7b2b56618f767c2a77b8c5b033ae9",
          "transactionIndex": "0x39",
          "logIndex": "0x66",
          "removed": false
        }
      ],
      "logsBloom": "0x00000000400000000000000000010000000000000000000000000000000000000000000000000000000000000000000000000000000000000000000000000000000000000000000000000008000000000000800000000000000000000000000000000000020000000000000000000800000000000000000000000010000000000000000000000000000000000000000000000000000000000000000000000000000000008000000000000000000008000000000000000000800000000000000000000002000000000000000000000000000000000000000000000000000020000000000000000000000000000000000000000000000000000000000000000000",
      "type": "0x2",
      "transactionHash": "0x3b6ee989760590bd3e0ae9b1337ca2e61ae7b2b56618f767c2a77b8c5b033ae9",
      "transactionIndex": "0x39",
      "blockHash": "0x180efd8cfcaca5fcc9a97003c2463c5182867b2481a93f21dcd4569275ff52d6",
      "blockNumber": "0x210c11c",
      "gasUsed": "0xa897",
      "effectiveGasPrice": "0x120d67",
      "from": "0xf521a4fe5910b4fb4a14c9546c2837d33bec455d",
      "to": "0x2213414893259b0c48066acd1763e7fba97859e5",
      "contractAddress": null,
      "l1BaseFeeScalar": "0x8dd",
      "l1BlobBaseFee": "0x1",
      "l1BlobBaseFeeScalar": "0x101c12",
      "l1Fee": "0x1f1c0423",
      "l1GasPrice": "0x891b3a1",
      "l1GasUsed": "0x640"
    },
    {
      "status": "0x1",
      "cumulativeGasUsed": "0xa25fab",
      "logs": [
        {
          "address": "0x2213414893259b0c48066acd1763e7fba97859e5",
          "topics": [
            "0xddf252ad1be2c89b69c2b068fc378daa952ba7f163c4a11628f55a4df523b3ef",
            "0x0000000000000000000000000000000000000000000000000000000000000000",
            "0x0000000000000000000000006e4141d33021b52c91c28608403db4a0ffb50ec6"
          ],
          "data": "0x0000000000000000000000000000000000000000000000000000000000000063",
          "blockHash": "0x180efd8cfcaca5fcc9a97003c2463c5182867b2481a93f21dcd4569275ff52d6",
          "blockNumber": "0x210c11c",
          "blockTimestamp": "0x68abdf1b",
          "transactionHash": "0x25867ebb9a62e2764d6a8522c784bd3dc65f398900162c153a37361658d2d2f8",
          "transactionIndex": "0x3a",
          "logIndex": "0x67",
          "removed": false
        }
      ],
      "logsBloom": "0x00000000000000000000000000010000000000000000000000000000000000000000001000000000000000000000000000000000000000000000000000000000000000000000000000000028000000000000000000000000000000000000000000000000020000000000000000000800000000000000000000000010000000000000000000000000000000000000000000000000000000000000000000000000000000008000000000000000000008000000000000000000000000000000000000000002000000000000000000000000000000000000000000000000000020000000000000002000000000000000000000000000000000000000000000000000",
      "type": "0x2",
      "transactionHash": "0x25867ebb9a62e2764d6a8522c784bd3dc65f398900162c153a37361658d2d2f8",
      "transactionIndex": "0x3a",
      "blockHash": "0x180efd8cfcaca5fcc9a97003c2463c5182867b2481a93f21dcd4569275ff52d6",
      "blockNumber": "0x210c11c",
      "gasUsed": "0xa897",
      "effectiveGasPrice": "0x120d67",
      "from": "0xf521a4fe5910b4fb4a14c9546c2837d33bec455d",
      "to": "0x2213414893259b0c48066acd1763e7fba97859e5",
      "contractAddress": null,
      "l1BaseFeeScalar": "0x8dd",
      "l1BlobBaseFee": "0x1",
      "l1BlobBaseFeeScalar": "0x101c12",
      "l1Fee": "0x1f1c0423",
      "l1GasPrice": "0x891b3a1",
      "l1GasUsed": "0x640"
    }
  ],
  "libraries": [],
  "pending": [],
  "returns": {},
  "timestamp": 1756094267,
  "chain": 8453,
  "commit": "aab4a17"
}